{
	"_format": "hh-sol-artifact-1",
	"contractName": "Miles",
	"sourceName": "contracts/Miles.sol",
	"abi": [
		{
			"inputs": [],
			"stateMutability": "nonpayable",
			"type": "constructor"
		},
		{
			"inputs": [],
			"name": "ECDSAInvalidSignature",
			"type": "error"
		},
		{
			"inputs": [
				{
					"internalType": "uint256",
					"name": "length",
					"type": "uint256"
				}
			],
			"name": "ECDSAInvalidSignatureLength",
			"type": "error"
		},
		{
			"inputs": [
				{
					"internalType": "bytes32",
					"name": "s",
					"type": "bytes32"
				}
			],
			"name": "ECDSAInvalidSignatureS",
			"type": "error"
		},
		{
			"inputs": [
				{
					"internalType": "address",
					"name": "spender",
					"type": "address"
				},
				{
					"internalType": "uint256",
					"name": "allowance",
					"type": "uint256"
				},
				{
					"internalType": "uint256",
					"name": "needed",
					"type": "uint256"
				}
			],
			"name": "ERC20InsufficientAllowance",
			"type": "error"
		},
		{
			"inputs": [
				{
					"internalType": "address",
					"name": "sender",
					"type": "address"
				},
				{
					"internalType": "uint256",
					"name": "balance",
					"type": "uint256"
				},
				{
					"internalType": "uint256",
					"name": "needed",
					"type": "uint256"
				}
			],
			"name": "ERC20InsufficientBalance",
			"type": "error"
		},
		{
			"inputs": [
				{
					"internalType": "address",
					"name": "approver",
					"type": "address"
				}
			],
			"name": "ERC20InvalidApprover",
			"type": "error"
		},
		{
			"inputs": [
				{
					"internalType": "address",
					"name": "receiver",
					"type": "address"
				}
			],
			"name": "ERC20InvalidReceiver",
			"type": "error"
		},
		{
			"inputs": [
				{
					"internalType": "address",
					"name": "sender",
					"type": "address"
				}
			],
			"name": "ERC20InvalidSender",
			"type": "error"
		},
		{
			"inputs": [
				{
					"internalType": "address",
					"name": "spender",
					"type": "address"
				}
			],
			"name": "ERC20InvalidSpender",
			"type": "error"
		},
		{
			"inputs": [
				{
					"internalType": "uint256",
					"name": "deadline",
					"type": "uint256"
				}
			],
			"name": "ERC2612ExpiredSignature",
			"type": "error"
		},
		{
			"inputs": [
				{
					"internalType": "address",
					"name": "signer",
					"type": "address"
				},
				{
					"internalType": "address",
					"name": "owner",
					"type": "address"
				}
			],
			"name": "ERC2612InvalidSigner",
			"type": "error"
		},
		{
			"inputs": [
				{
					"internalType": "address",
					"name": "account",
					"type": "address"
				},
				{
					"internalType": "uint256",
					"name": "currentNonce",
					"type": "uint256"
				}
			],
			"name": "InvalidAccountNonce",
			"type": "error"
		},
		{
			"inputs": [],
			"name": "InvalidInitialization",
			"type": "error"
		},
		{
			"inputs": [],
			"name": "NotInitializing",
			"type": "error"
		},
		{
			"inputs": [
				{
					"internalType": "address",
					"name": "owner",
					"type": "address"
				}
			],
			"name": "OwnableInvalidOwner",
			"type": "error"
		},
		{
			"inputs": [
				{
					"internalType": "address",
					"name": "account",
					"type": "address"
				}
			],
			"name": "OwnableUnauthorizedAccount",
			"type": "error"
		},
		{
			"anonymous": false,
			"inputs": [
				{
					"indexed": true,
					"internalType": "address",
					"name": "owner",
					"type": "address"
				},
				{
					"indexed": true,
					"internalType": "address",
					"name": "spender",
					"type": "address"
				},
				{
					"indexed": false,
					"internalType": "uint256",
					"name": "value",
					"type": "uint256"
				}
			],
			"name": "Approval",
			"type": "event"
		},
		{
			"anonymous": false,
			"inputs": [],
			"name": "EIP712DomainChanged",
			"type": "event"
		},
		{
			"anonymous": false,
			"inputs": [
				{
					"indexed": false,
					"internalType": "uint64",
					"name": "version",
					"type": "uint64"
				}
			],
			"name": "Initialized",
			"type": "event"
		},
		{
			"anonymous": false,
			"inputs": [
				{
					"indexed": true,
					"internalType": "address",
					"name": "previousOwner",
					"type": "address"
				},
				{
					"indexed": true,
					"internalType": "address",
					"name": "newOwner",
					"type": "address"
				}
			],
			"name": "OwnershipTransferred",
			"type": "event"
		},
		{
			"anonymous": false,
			"inputs": [
				{
					"indexed": true,
					"internalType": "address",
					"name": "from",
					"type": "address"
				},
				{
					"indexed": true,
					"internalType": "address",
					"name": "to",
					"type": "address"
				},
				{
					"indexed": false,
					"internalType": "uint256",
					"name": "value",
					"type": "uint256"
				}
			],
			"name": "Transfer",
			"type": "event"
		},
		{
			"inputs": [],
			"name": "DOMAIN_SEPARATOR",
			"outputs": [
				{
					"internalType": "bytes32",
					"name": "",
					"type": "bytes32"
				}
			],
			"stateMutability": "view",
			"type": "function"
		},
		{
			"inputs": [
				{
					"internalType": "address",
					"name": "owner",
					"type": "address"
				},
				{
					"internalType": "address",
					"name": "spender",
					"type": "address"
				}
			],
			"name": "allowance",
			"outputs": [
				{
					"internalType": "uint256",
					"name": "",
					"type": "uint256"
				}
			],
			"stateMutability": "view",
			"type": "function"
		},
		{
			"inputs": [
				{
					"internalType": "address",
					"name": "spender",
					"type": "address"
				},
				{
					"internalType": "uint256",
					"name": "value",
					"type": "uint256"
				}
			],
			"name": "approve",
			"outputs": [
				{
					"internalType": "bool",
					"name": "",
					"type": "bool"
				}
			],
			"stateMutability": "nonpayable",
			"type": "function"
		},
		{
			"inputs": [
				{
					"internalType": "address",
					"name": "account",
					"type": "address"
				}
			],
			"name": "balanceOf",
			"outputs": [
				{
					"internalType": "uint256",
					"name": "",
					"type": "uint256"
				}
			],
			"stateMutability": "view",
			"type": "function"
		},
		{
			"inputs": [
				{
					"internalType": "uint256",
					"name": "value",
					"type": "uint256"
				}
			],
			"name": "burn",
			"outputs": [],
			"stateMutability": "nonpayable",
			"type": "function"
		},
		{
			"inputs": [
				{
					"internalType": "address",
					"name": "account",
					"type": "address"
				},
				{
					"internalType": "uint256",
					"name": "value",
					"type": "uint256"
				}
			],
			"name": "burnFrom",
			"outputs": [],
			"stateMutability": "nonpayable",
			"type": "function"
		},
		{
			"inputs": [],
			"name": "decimals",
			"outputs": [
				{
					"internalType": "uint8",
					"name": "",
					"type": "uint8"
				}
			],
			"stateMutability": "view",
			"type": "function"
		},
		{
			"inputs": [],
			"name": "eip712Domain",
			"outputs": [
				{
					"internalType": "bytes1",
					"name": "fields",
					"type": "bytes1"
				},
				{
					"internalType": "string",
					"name": "name",
					"type": "string"
				},
				{
					"internalType": "string",
					"name": "version",
					"type": "string"
				},
				{
					"internalType": "uint256",
					"name": "chainId",
					"type": "uint256"
				},
				{
					"internalType": "address",
					"name": "verifyingContract",
					"type": "address"
				},
				{
					"internalType": "bytes32",
					"name": "salt",
					"type": "bytes32"
				},
				{
					"internalType": "uint256[]",
					"name": "extensions",
					"type": "uint256[]"
				}
			],
			"stateMutability": "view",
			"type": "function"
		},
		{
			"inputs": [],
			"name": "initialize",
			"outputs": [],
			"stateMutability": "nonpayable",
			"type": "function"
		},
		{
			"inputs": [
				{
					"internalType": "address",
					"name": "to",
					"type": "address"
				},
				{
					"internalType": "uint256",
					"name": "amount",
					"type": "uint256"
				}
			],
			"name": "mint",
			"outputs": [],
			"stateMutability": "nonpayable",
			"type": "function"
		},
		{
			"inputs": [],
			"name": "name",
			"outputs": [
				{
					"internalType": "string",
					"name": "",
					"type": "string"
				}
			],
			"stateMutability": "view",
			"type": "function"
		},
		{
			"inputs": [
				{
					"internalType": "address",
					"name": "owner",
					"type": "address"
				}
			],
			"name": "nonces",
			"outputs": [
				{
					"internalType": "uint256",
					"name": "",
					"type": "uint256"
				}
			],
			"stateMutability": "view",
			"type": "function"
		},
		{
			"inputs": [],
			"name": "owner",
			"outputs": [
				{
					"internalType": "address",
					"name": "",
					"type": "address"
				}
			],
			"stateMutability": "view",
			"type": "function"
		},
		{
			"inputs": [
				{
					"internalType": "address",
					"name": "owner",
					"type": "address"
				},
				{
					"internalType": "address",
					"name": "spender",
					"type": "address"
				},
				{
					"internalType": "uint256",
					"name": "value",
					"type": "uint256"
				},
				{
					"internalType": "uint256",
					"name": "deadline",
					"type": "uint256"
				},
				{
					"internalType": "uint8",
					"name": "v",
					"type": "uint8"
				},
				{
					"internalType": "bytes32",
					"name": "r",
					"type": "bytes32"
				},
				{
					"internalType": "bytes32",
					"name": "s",
					"type": "bytes32"
				}
			],
			"name": "permit",
			"outputs": [],
			"stateMutability": "nonpayable",
			"type": "function"
		},
		{
			"inputs": [],
			"name": "renounceOwnership",
			"outputs": [],
			"stateMutability": "nonpayable",
			"type": "function"
		},
		{
			"inputs": [],
			"name": "symbol",
			"outputs": [
				{
					"internalType": "string",
					"name": "",
					"type": "string"
				}
			],
			"stateMutability": "view",
			"type": "function"
		},
		{
			"inputs": [],
			"name": "totalSupply",
			"outputs": [
				{
					"internalType": "uint256",
					"name": "",
					"type": "uint256"
				}
			],
			"stateMutability": "view",
			"type": "function"
		},
		{
			"inputs": [
				{
					"internalType": "address",
					"name": "to",
					"type": "address"
				},
				{
					"internalType": "uint256",
					"name": "value",
					"type": "uint256"
				}
			],
			"name": "transfer",
			"outputs": [
				{
					"internalType": "bool",
					"name": "",
					"type": "bool"
				}
			],
			"stateMutability": "nonpayable",
			"type": "function"
		},
		{
			"inputs": [
				{
					"internalType": "address",
					"name": "from",
					"type": "address"
				},
				{
					"internalType": "address",
					"name": "to",
					"type": "address"
				},
				{
					"internalType": "uint256",
					"name": "value",
					"type": "uint256"
				}
			],
			"name": "transferFrom",
			"outputs": [
				{
					"internalType": "bool",
					"name": "",
					"type": "bool"
				}
			],
			"stateMutability": "nonpayable",
			"type": "function"
		},
		{
			"inputs": [
				{
					"internalType": "address",
					"name": "newOwner",
					"type": "address"
				}
			],
			"name": "transferOwnership",
			"outputs": [],
			"stateMutability": "nonpayable",
			"type": "function"
		}
	],
	"bytecode": "0x60806040523480156200001157600080fd5b50620000226200002860201b60201c565b6200019c565b60006200003a6200013260201b60201c565b90508060000160089054906101000a900460ff161562000086576040517ff92ee8a900000000000000000000000000000000000000000000000000000000815260040160405180910390fd5b67ffffffffffffffff80168160000160009054906101000a900467ffffffffffffffff1667ffffffffffffffff16146200012f5767ffffffffffffffff8160000160006101000a81548167ffffffffffffffff021916908367ffffffffffffffff1602179055507fc7f505b2f371ae2175ee4913f4499e1f2633a7b5936321eed1cdaeb6115181d267ffffffffffffffff6040516200012691906200017f565b60405180910390a15b50565b60007ff0c57e16840df040f15088dc2f81fe391c3923bec73e23a9662efc9c229c6a00905090565b600067ffffffffffffffff82169050919050565b62000179816200015a565b82525050565b60006020820190506200019660008301846200016e565b92915050565b612b7280620001ac6000396000f3fe608060405234801561001057600080fd5b506004361061012c5760003560e01c806379cc6790116100ad57806395d89b411161007157806395d89b4114610313578063a9059cbb14610331578063d505accf14610361578063dd62ed3e1461037d578063f2fde38b146103ad5761012c565b806379cc67901461027b5780637ecebe00146102975780638129fc1c146102c757806384b0196e146102d15780638da5cb5b146102f55761012c565b80633644e515116100f45780633644e515146101eb57806340c10f191461020957806342966c681461022557806370a0823114610241578063715018a6146102715761012c565b806306fdde0314610131578063095ea7b31461014f57806318160ddd1461017f57806323b872dd1461019d578063313ce567146101cd575b600080fd5b6101396103c9565b6040516101469190611e5a565b60405180910390f35b61016960048036038101906101649190611f15565b61046a565b6040516101769190611f70565b60405180910390f35b61018761048d565b6040516101949190611f9a565b60405180910390f35b6101b760048036038101906101b29190611fb5565b6104a5565b6040516101c49190611f70565b60405180910390f35b6101d56104d4565b6040516101e29190612024565b60405180910390f35b6101f36104dd565b6040516102009190612058565b60405180910390f35b610223600480360381019061021e9190611f15565b6104ec565b005b61023f600480360381019061023a9190612073565b610502565b005b61025b600480360381019061025691906120a0565b610516565b6040516102689190611f9a565b60405180910390f35b61027961056d565b005b61029560048036038101906102909190611f15565b610581565b005b6102b160048036038101906102ac91906120a0565b6105a1565b6040516102be9190611f9a565b60405180910390f35b6102cf6105b3565b005b6102d9610826565b6040516102ec97969594939291906121d5565b60405180910390f35b6102fd610938565b60405161030a9190612259565b60405180910390f35b61031b610970565b6040516103289190611e5a565b60405180910390f35b61034b60048036038101906103469190611f15565b610a11565b6040516103589190611f70565b60405180910390f35b61037b600480360381019061037691906122cc565b610a34565b005b6103976004803603810190610392919061236e565b610b7c565b6040516103a49190611f9a565b60405180910390f35b6103c760048036038101906103c291906120a0565b610c11565b005b606060006103d5610c97565b90508060030180546103e6906123dd565b80601f0160208091040260200160405190810160405280929190818152602001828054610412906123dd565b801561045f5780601f106104345761010080835404028352916020019161045f565b820191906000526020600020905b81548152906001019060200180831161044257829003601f168201915b505050505091505090565b600080610475610cbf565b9050610482818585610cc7565b600191505092915050565b600080610498610c97565b9050806002015491505090565b6000806104b0610cbf565b90506104bd858285610cd9565b6104c8858585610d6d565b60019150509392505050565b60006012905090565b60006104e7610e61565b905090565b6104f4610e70565b6104fe8282610ef7565b5050565b61051361050d610cbf565b82610f79565b50565b600080610521610c97565b90508060000160008473ffffffffffffffffffffffffffffffffffffffff1673ffffffffffffffffffffffffffffffffffffffff16815260200190815260200160002054915050919050565b610575610e70565b61057f6000610ffb565b565b6105938261058d610cbf565b83610cd9565b61059d8282610f79565b5050565b60006105ac826110d2565b9050919050565b60006105bd611129565b905060008160000160089054906101000a900460ff1615905060008260000160009054906101000a900467ffffffffffffffff1690506000808267ffffffffffffffff1614801561060b5750825b9050600060018367ffffffffffffffff16148015610640575060003073ffffffffffffffffffffffffffffffffffffffff163b145b90508115801561064e575080155b15610685576040517ff92ee8a900000000000000000000000000000000000000000000000000000000815260040160405180910390fd5b60018560000160006101000a81548167ffffffffffffffff021916908367ffffffffffffffff16021790555083156106d55760018560000160086101000a81548160ff0219169083151502179055505b6107496040518060400160405280600581526020017f4d696c65730000000000000000000000000000000000000000000000000000008152506040518060400160405280600581526020017f4d494c4553000000000000000000000000000000000000000000000000000000815250611151565b610751611167565b61075a33611171565b6107986040518060400160405280600581526020017f4d696c6573000000000000000000000000000000000000000000000000000000815250611185565b6107c3336107a46104d4565b600a6107b09190612570565b620f42406107be91906125bb565b610ef7565b831561081f5760008560000160086101000a81548160ff0219169083151502179055507fc7f505b2f371ae2175ee4913f4499e1f2633a7b5936321eed1cdaeb6115181d260016040516108169190612656565b60405180910390a15b5050505050565b600060608060008060006060600061083c6111cf565b90506000801b816000015414801561085a57506000801b8160010154145b610899576040517f08c379a0000000000000000000000000000000000000000000000000000000008152600401610890906126bd565b60405180910390fd5b6108a16111f7565b6108a9611298565b46306000801b600067ffffffffffffffff8111156108ca576108c96126dd565b5b6040519080825280602002602001820160405280156108f85781602001602082028036833780820191505090505b507f0f0000000000000000000000000000000000000000000000000000000000000095949392919097509750975097509750975097505090919293949596565b600080610943611339565b90508060000160009054906101000a900473ffffffffffffffffffffffffffffffffffffffff1691505090565b6060600061097c610c97565b905080600401805461098d906123dd565b80601f01602080910402602001604051908101604052809291908181526020018280546109b9906123dd565b8015610a065780601f106109db57610100808354040283529160200191610a06565b820191906000526020600020905b8154815290600101906020018083116109e957829003601f168201915b505050505091505090565b600080610a1c610cbf565b9050610a29818585610d6d565b600191505092915050565b83421115610a7957836040517f62791302000000000000000000000000000000000000000000000000000000008152600401610a709190611f9a565b60405180910390fd5b60007f6e71edae12b1b97f4d1f60370fef10105fa2faae0126114a169c64845d6126c9888888610aa88c611361565b89604051602001610abe9695949392919061270c565b6040516020818303038152906040528051906020012090506000610ae1826113c6565b90506000610af1828787876113e0565b90508973ffffffffffffffffffffffffffffffffffffffff168173ffffffffffffffffffffffffffffffffffffffff1614610b6557808a6040517f4b800e46000000000000000000000000000000000000000000000000000000008152600401610b5c92919061276d565b60405180910390fd5b610b708a8a8a610cc7565b50505050505050505050565b600080610b87610c97565b90508060010160008573ffffffffffffffffffffffffffffffffffffffff1673ffffffffffffffffffffffffffffffffffffffff16815260200190815260200160002060008473ffffffffffffffffffffffffffffffffffffffff1673ffffffffffffffffffffffffffffffffffffffff1681526020019081526020016000205491505092915050565b610c19610e70565b600073ffffffffffffffffffffffffffffffffffffffff168173ffffffffffffffffffffffffffffffffffffffff1603610c8b5760006040517f1e4fbdf7000000000000000000000000000000000000000000000000000000008152600401610c829190612259565b60405180910390fd5b610c9481610ffb565b50565b60007f52c63247e1f47db19d5ce0460030c497f067ca4cebf71ba98eeadabe20bace00905090565b600033905090565b610cd48383836001611410565b505050565b6000610ce58484610b7c565b90507fffffffffffffffffffffffffffffffffffffffffffffffffffffffffffffffff8114610d675781811015610d57578281836040517ffb8f41b2000000000000000000000000000000000000000000000000000000008152600401610d4e93929190612796565b60405180910390fd5b610d6684848484036000611410565b5b50505050565b600073ffffffffffffffffffffffffffffffffffffffff168373ffffffffffffffffffffffffffffffffffffffff1603610ddf5760006040517f96c6fd1e000000000000000000000000000000000000000000000000000000008152600401610dd69190612259565b60405180910390fd5b600073ffffffffffffffffffffffffffffffffffffffff168273ffffffffffffffffffffffffffffffffffffffff1603610e515760006040517fec442f05000000000000000000000000000000000000000000000000000000008152600401610e489190612259565b60405180910390fd5b610e5c8383836115f6565b505050565b6000610e6b611835565b905090565b610e78610cbf565b73ffffffffffffffffffffffffffffffffffffffff16610e96610938565b73ffffffffffffffffffffffffffffffffffffffff1614610ef557610eb9610cbf565b6040517f118cdaa7000000000000000000000000000000000000000000000000000000008152600401610eec9190612259565b60405180910390fd5b565b600073ffffffffffffffffffffffffffffffffffffffff168273ffffffffffffffffffffffffffffffffffffffff1603610f695760006040517fec442f05000000000000000000000000000000000000000000000000000000008152600401610f609190612259565b60405180910390fd5b610f75600083836115f6565b5050565b600073ffffffffffffffffffffffffffffffffffffffff168273ffffffffffffffffffffffffffffffffffffffff1603610feb5760006040517f96c6fd1e000000000000000000000000000000000000000000000000000000008152600401610fe29190612259565b60405180910390fd5b610ff7826000836115f6565b5050565b6000611005611339565b905060008160000160009054906101000a900473ffffffffffffffffffffffffffffffffffffffff169050828260000160006101000a81548173ffffffffffffffffffffffffffffffffffffffff021916908373ffffffffffffffffffffffffffffffffffffffff1602179055508273ffffffffffffffffffffffffffffffffffffffff168173ffffffffffffffffffffffffffffffffffffffff167f8be0079c531659141344cd1fd0a4f28419497f9722a3daafe3b4186f6b6457e060405160405180910390a3505050565b6000806110dd611899565b90508060000160008473ffffffffffffffffffffffffffffffffffffffff1673ffffffffffffffffffffffffffffffffffffffff16815260200190815260200160002054915050919050565b60007ff0c57e16840df040f15088dc2f81fe391c3923bec73e23a9662efc9c229c6a00905090565b6111596118c1565b6111638282611901565b5050565b61116f6118c1565b565b6111796118c1565b6111828161193e565b50565b61118d6118c1565b6111cc816040518060400160405280600181526020017f31000000000000000000000000000000000000000000000000000000000000008152506119c4565b50565b60007fa16a46d94261c7517cc8ff89f61c0ce93598e3c849801011dee649a6a557d100905090565b606060006112036111cf565b9050806002018054611214906123dd565b80601f0160208091040260200160405190810160405280929190818152602001828054611240906123dd565b801561128d5780601f106112625761010080835404028352916020019161128d565b820191906000526020600020905b81548152906001019060200180831161127057829003601f168201915b505050505091505090565b606060006112a46111cf565b90508060030180546112b5906123dd565b80601f01602080910402602001604051908101604052809291908181526020018280546112e1906123dd565b801561132e5780601f106113035761010080835404028352916020019161132e565b820191906000526020600020905b81548152906001019060200180831161131157829003601f168201915b505050505091505090565b60007f9016d09d72d40fdae2fd8ceac6b6234c7706214fd39c1cd1e609a0528c199300905090565b60008061136c611899565b90508060000160008473ffffffffffffffffffffffffffffffffffffffff1673ffffffffffffffffffffffffffffffffffffffff168152602001908152602001600020600081548092919060010191905055915050919050565b60006113d96113d3610e61565b83611a19565b9050919050565b6000806000806113f288888888611a5a565b9250925092506114028282611b4e565b829350505050949350505050565b600061141a610c97565b9050600073ffffffffffffffffffffffffffffffffffffffff168573ffffffffffffffffffffffffffffffffffffffff160361148e5760006040517fe602df050000000000000000000000000000000000000000000000000000000081526004016114859190612259565b60405180910390fd5b600073ffffffffffffffffffffffffffffffffffffffff168473ffffffffffffffffffffffffffffffffffffffff16036115005760006040517f94280d620000000000000000000000000000000000000000000000000000000081526004016114f79190612259565b60405180910390fd5b828160010160008773ffffffffffffffffffffffffffffffffffffffff1673ffffffffffffffffffffffffffffffffffffffff16815260200190815260200160002060008673ffffffffffffffffffffffffffffffffffffffff1673ffffffffffffffffffffffffffffffffffffffff1681526020019081526020016000208190555081156115ef578373ffffffffffffffffffffffffffffffffffffffff168573ffffffffffffffffffffffffffffffffffffffff167f8c5be1e5ebec7d5bd14f71427d1e84f3dd0314c0f7b2291e5b200ac8c7c3b925856040516115e69190611f9a565b60405180910390a35b5050505050565b6000611600610c97565b9050600073ffffffffffffffffffffffffffffffffffffffff168473ffffffffffffffffffffffffffffffffffffffff1603611656578181600201600082825461164a91906127cd565b9250508190555061172f565b60008160000160008673ffffffffffffffffffffffffffffffffffffffff1673ffffffffffffffffffffffffffffffffffffffff168152602001908152602001600020549050828110156116e5578481846040517fe450d38c0000000000000000000000000000000000000000000000000000000081526004016116dc93929190612796565b60405180910390fd5b8281038260000160008773ffffffffffffffffffffffffffffffffffffffff1673ffffffffffffffffffffffffffffffffffffffff16815260200190815260200160002081905550505b600073ffffffffffffffffffffffffffffffffffffffff168373ffffffffffffffffffffffffffffffffffffffff160361177a578181600201600082825403925050819055506117ca565b818160000160008573ffffffffffffffffffffffffffffffffffffffff1673ffffffffffffffffffffffffffffffffffffffff168152602001908152602001600020600082825401925050819055505b8273ffffffffffffffffffffffffffffffffffffffff168473ffffffffffffffffffffffffffffffffffffffff167fddf252ad1be2c89b69c2b068fc378daa952ba7f163c4a11628f55a4df523b3ef846040516118279190611f9a565b60405180910390a350505050565b60007f8b73c3c69bb8fe3d512ecc4cf759cc79239f7b179b0ffacaa9a75d522b39400f611860611cb2565b611868611d2e565b463060405160200161187e959493929190612801565b60405160208183030381529060405280519060200120905090565b60007f5ab42ced628888259c08ac98db1eb0cf702fc1501344311d8b100cd1bfe4bb00905090565b6118c9611daa565b6118ff576040517fd7e6bcf800000000000000000000000000000000000000000000000000000000815260040160405180910390fd5b565b6119096118c1565b6000611913610c97565b90508281600301908161192691906129f6565b508181600401908161193891906129f6565b50505050565b6119466118c1565b600073ffffffffffffffffffffffffffffffffffffffff168173ffffffffffffffffffffffffffffffffffffffff16036119b85760006040517f1e4fbdf70000000000000000000000000000000000000000000000000000000081526004016119af9190612259565b60405180910390fd5b6119c181610ffb565b50565b6119cc6118c1565b60006119d66111cf565b9050828160020190816119e991906129f6565b50818160030190816119fb91906129f6565b506000801b81600001819055506000801b8160010181905550505050565b60006040517f190100000000000000000000000000000000000000000000000000000000000081528360028201528260228201526042812091505092915050565b60008060007f7fffffffffffffffffffffffffffffff5d576e7357a4501ddfe92f46681b20a08460001c1115611a9a576000600385925092509250611b44565b600060018888888860405160008152602001604052604051611abf9493929190612ac8565b6020604051602081039080840390855afa158015611ae1573d6000803e3d6000fd5b505050602060405103519050600073ffffffffffffffffffffffffffffffffffffffff168173ffffffffffffffffffffffffffffffffffffffff1603611b3557600060016000801b93509350935050611b44565b8060008060001b935093509350505b9450945094915050565b60006003811115611b6257611b61612b0d565b5b826003811115611b7557611b74612b0d565b5b0315611cae5760016003811115611b8f57611b8e612b0d565b5b826003811115611ba257611ba1612b0d565b5b03611bd9576040517ff645eedf00000000000000000000000000000000000000000000000000000000815260040160405180910390fd5b60026003811115611bed57611bec612b0d565b5b826003811115611c0057611bff612b0d565b5b03611c45578060001c6040517ffce698f7000000000000000000000000000000000000000000000000000000008152600401611c3c9190611f9a565b60405180910390fd5b600380811115611c5857611c57612b0d565b5b826003811115611c6b57611c6a612b0d565b5b03611cad57806040517fd78bce0c000000000000000000000000000000000000000000000000000000008152600401611ca49190612058565b60405180910390fd5b5b5050565b600080611cbd6111cf565b90506000611cc96111f7565b9050600081511115611ce657808051906020012092505050611d2b565b6000826000015490506000801b8114611d0457809350505050611d2b565b7fc5d2460186f7233c927e7db2dcc703c0e500b653ca82273b7bfad8045d85a47093505050505b90565b600080611d396111cf565b90506000611d45611298565b9050600081511115611d6257808051906020012092505050611da7565b6000826001015490506000801b8114611d8057809350505050611da7565b7fc5d2460186f7233c927e7db2dcc703c0e500b653ca82273b7bfad8045d85a47093505050505b90565b6000611db4611129565b60000160089054906101000a900460ff16905090565b600081519050919050565b600082825260208201905092915050565b60005b83811015611e04578082015181840152602081019050611de9565b60008484015250505050565b6000601f19601f8301169050919050565b6000611e2c82611dca565b611e368185611dd5565b9350611e46818560208601611de6565b611e4f81611e10565b840191505092915050565b60006020820190508181036000830152611e748184611e21565b905092915050565b600080fd5b600073ffffffffffffffffffffffffffffffffffffffff82169050919050565b6000611eac82611e81565b9050919050565b611ebc81611ea1565b8114611ec757600080fd5b50565b600081359050611ed981611eb3565b92915050565b6000819050919050565b611ef281611edf565b8114611efd57600080fd5b50565b600081359050611f0f81611ee9565b92915050565b60008060408385031215611f2c57611f2b611e7c565b5b6000611f3a85828601611eca565b9250506020611f4b85828601611f00565b9150509250929050565b60008115159050919050565b611f6a81611f55565b82525050565b6000602082019050611f856000830184611f61565b92915050565b611f9481611edf565b82525050565b6000602082019050611faf6000830184611f8b565b92915050565b600080600060608486031215611fce57611fcd611e7c565b5b6000611fdc86828701611eca565b9350506020611fed86828701611eca565b9250506040611ffe86828701611f00565b9150509250925092565b600060ff82169050919050565b61201e81612008565b82525050565b60006020820190506120396000830184612015565b92915050565b6000819050919050565b6120528161203f565b82525050565b600060208201905061206d6000830184612049565b92915050565b60006020828403121561208957612088611e7c565b5b600061209784828501611f00565b91505092915050565b6000602082840312156120b6576120b5611e7c565b5b60006120c484828501611eca565b91505092915050565b60007fff0000000000000000000000000000000000000000000000000000000000000082169050919050565b612102816120cd565b82525050565b61211181611ea1565b82525050565b600081519050919050565b600082825260208201905092915050565b6000819050602082019050919050565b61214c81611edf565b82525050565b600061215e8383612143565b60208301905092915050565b6000602082019050919050565b600061218282612117565b61218c8185612122565b935061219783612133565b8060005b838110156121c85781516121af8882612152565b97506121ba8361216a565b92505060018101905061219b565b5085935050505092915050565b600060e0820190506121ea600083018a6120f9565b81810360208301526121fc8189611e21565b905081810360408301526122108188611e21565b905061221f6060830187611f8b565b61222c6080830186612108565b61223960a0830185612049565b81810360c083015261224b8184612177565b905098975050505050505050565b600060208201905061226e6000830184612108565b92915050565b61227d81612008565b811461228857600080fd5b50565b60008135905061229a81612274565b92915050565b6122a98161203f565b81146122b457600080fd5b50565b6000813590506122c6816122a0565b92915050565b600080600080600080600060e0888a0312156122eb576122ea611e7c565b5b60006122f98a828b01611eca565b975050602061230a8a828b01611eca565b965050604061231b8a828b01611f00565b955050606061232c8a828b01611f00565b945050608061233d8a828b0161228b565b93505060a061234e8a828b016122b7565b92505060c061235f8a828b016122b7565b91505092959891949750929550565b6000806040838503121561238557612384611e7c565b5b600061239385828601611eca565b92505060206123a485828601611eca565b9150509250929050565b7f4e487b7100000000000000000000000000000000000000000000000000000000600052602260045260246000fd5b600060028204905060018216806123f557607f821691505b602082108103612408576124076123ae565b5b50919050565b7f4e487b7100000000000000000000000000000000000000000000000000000000600052601160045260246000fd5b60008160011c9050919050565b6000808291508390505b6001851115612494578086048111156124705761246f61240e565b5b600185161561247f5780820291505b808102905061248d8561243d565b9450612454565b94509492505050565b6000826124ad5760019050612569565b816124bb5760009050612569565b81600181146124d157600281146124db5761250a565b6001915050612569565b60ff8411156124ed576124ec61240e565b5b8360020a9150848211156125045761250361240e565b5b50612569565b5060208310610133831016604e8410600b841016171561253f5782820a90508381111561253a5761253961240e565b5b612569565b61254c848484600161244a565b925090508184048111156125635761256261240e565b5b81810290505b9392505050565b600061257b82611edf565b915061258683612008565b92506125b37fffffffffffffffffffffffffffffffffffffffffffffffffffffffffffffffff848461249d565b905092915050565b60006125c682611edf565b91506125d183611edf565b92508282026125df81611edf565b915082820484148315176125f6576125f561240e565b5b5092915050565b6000819050919050565b600067ffffffffffffffff82169050919050565b6000819050919050565b600061264061263b612636846125fd565b61261b565b612607565b9050919050565b61265081612625565b82525050565b600060208201905061266b6000830184612647565b92915050565b7f4549503731323a20556e696e697469616c697a65640000000000000000000000600082015250565b60006126a7601583611dd5565b91506126b282612671565b602082019050919050565b600060208201905081810360008301526126d68161269a565b9050919050565b7f4e487b7100000000000000000000000000000000000000000000000000000000600052604160045260246000fd5b600060c0820190506127216000830189612049565b61272e6020830188612108565b61273b6040830187612108565b6127486060830186611f8b565b6127556080830185611f8b565b61276260a0830184611f8b565b979650505050505050565b60006040820190506127826000830185612108565b61278f6020830184612108565b9392505050565b60006060820190506127ab6000830186612108565b6127b86020830185611f8b565b6127c56040830184611f8b565b949350505050565b60006127d882611edf565b91506127e383611edf565b92508282019050808211156127fb576127fa61240e565b5b92915050565b600060a0820190506128166000830188612049565b6128236020830187612049565b6128306040830186612049565b61283d6060830185611f8b565b61284a6080830184612108565b9695505050505050565b60008190508160005260206000209050919050565b60006020601f8301049050919050565b600082821b905092915050565b6000600883026128b67fffffffffffffffffffffffffffffffffffffffffffffffffffffffffffffffff82612879565b6128c08683612879565b95508019841693508086168417925050509392505050565b60006128f36128ee6128e984611edf565b61261b565b611edf565b9050919050565b6000819050919050565b61290d836128d8565b612921612919826128fa565b848454612886565b825550505050565b600090565b612936612929565b612941818484612904565b505050565b5b818110156129655761295a60008261292e565b600181019050612947565b5050565b601f8211156129aa5761297b81612854565b61298484612869565b81016020851015612993578190505b6129a761299f85612869565b830182612946565b50505b505050565b600082821c905092915050565b60006129cd600019846008026129af565b1980831691505092915050565b60006129e683836129bc565b9150826002028217905092915050565b6129ff82611dca565b67ffffffffffffffff811115612a1857612a176126dd565b5b612a2282546123dd565b612a2d828285612969565b600060209050601f831160018114612a605760008415612a4e578287015190505b612a5885826129da565b865550612ac0565b601f198416612a6e86612854565b60005b82811015612a9657848901518255600182019150602085019450602081019050612a71565b86831015612ab35784890151612aaf601f8916826129bc565b8355505b6001600288020188555050505b505050505050565b6000608082019050612add6000830187612049565b612aea6020830186612015565b612af76040830185612049565b612b046060830184612049565b95945050505050565b7f4e487b7100000000000000000000000000000000000000000000000000000000600052602160045260246000fdfea2646970667358221220337849a37f7343ba51c3977bd8ea0fa524af385e7121aea55bec95e00a69ca5b64736f6c63430008140033",
	"linkReferences": {},
	"deployedLinkReferences": {}
}