{
	"_format": "hh-sol-artifact-1",
	"contractName": "Upgrade_Passports_v2",
	"sourceName": "contracts/Upgrade_Passports.sol",
	"abi": [
		{
			"inputs": [],
			"stateMutability": "nonpayable",
			"type": "constructor"
		},
		{
			"inputs": [],
			"name": "ERC721EnumerableForbiddenBatchMint",
			"type": "error"
		},
		{
			"inputs": [
				{
					"internalType": "address",
					"name": "sender",
					"type": "address"
				},
				{
					"internalType": "uint256",
					"name": "tokenId",
					"type": "uint256"
				},
				{
					"internalType": "address",
					"name": "owner",
					"type": "address"
				}
			],
			"name": "ERC721IncorrectOwner",
			"type": "error"
		},
		{
			"inputs": [
				{
					"internalType": "address",
					"name": "operator",
					"type": "address"
				},
				{
					"internalType": "uint256",
					"name": "tokenId",
					"type": "uint256"
				}
			],
			"name": "ERC721InsufficientApproval",
			"type": "error"
		},
		{
			"inputs": [
				{
					"internalType": "address",
					"name": "approver",
					"type": "address"
				}
			],
			"name": "ERC721InvalidApprover",
			"type": "error"
		},
		{
			"inputs": [
				{
					"internalType": "address",
					"name": "operator",
					"type": "address"
				}
			],
			"name": "ERC721InvalidOperator",
			"type": "error"
		},
		{
			"inputs": [
				{
					"internalType": "address",
					"name": "owner",
					"type": "address"
				}
			],
			"name": "ERC721InvalidOwner",
			"type": "error"
		},
		{
			"inputs": [
				{
					"internalType": "address",
					"name": "receiver",
					"type": "address"
				}
			],
			"name": "ERC721InvalidReceiver",
			"type": "error"
		},
		{
			"inputs": [
				{
					"internalType": "address",
					"name": "sender",
					"type": "address"
				}
			],
			"name": "ERC721InvalidSender",
			"type": "error"
		},
		{
			"inputs": [
				{
					"internalType": "uint256",
					"name": "tokenId",
					"type": "uint256"
				}
			],
			"name": "ERC721NonexistentToken",
			"type": "error"
		},
		{
			"inputs": [
				{
					"internalType": "address",
					"name": "owner",
					"type": "address"
				},
				{
					"internalType": "uint256",
					"name": "index",
					"type": "uint256"
				}
			],
			"name": "ERC721OutOfBoundsIndex",
			"type": "error"
		},
		{
			"inputs": [],
			"name": "InvalidInitialization",
			"type": "error"
		},
		{
			"inputs": [],
			"name": "NotInitializing",
			"type": "error"
		},
		{
			"inputs": [
				{
					"internalType": "address",
					"name": "owner",
					"type": "address"
				}
			],
			"name": "OwnableInvalidOwner",
			"type": "error"
		},
		{
			"inputs": [
				{
					"internalType": "address",
					"name": "account",
					"type": "address"
				}
			],
			"name": "OwnableUnauthorizedAccount",
			"type": "error"
		},
		{
			"anonymous": false,
			"inputs": [
				{
					"indexed": true,
					"internalType": "address",
					"name": "owner",
					"type": "address"
				},
				{
					"indexed": true,
					"internalType": "address",
					"name": "approved",
					"type": "address"
				},
				{
					"indexed": true,
					"internalType": "uint256",
					"name": "tokenId",
					"type": "uint256"
				}
			],
			"name": "Approval",
			"type": "event"
		},
		{
			"anonymous": false,
			"inputs": [
				{
					"indexed": true,
					"internalType": "address",
					"name": "owner",
					"type": "address"
				},
				{
					"indexed": true,
					"internalType": "address",
					"name": "operator",
					"type": "address"
				},
				{
					"indexed": false,
					"internalType": "bool",
					"name": "approved",
					"type": "bool"
				}
			],
			"name": "ApprovalForAll",
			"type": "event"
		},
		{
			"anonymous": false,
			"inputs": [
				{
					"indexed": false,
					"internalType": "uint64",
					"name": "version",
					"type": "uint64"
				}
			],
			"name": "Initialized",
			"type": "event"
		},
		{
			"anonymous": false,
			"inputs": [
				{
					"indexed": true,
					"internalType": "address",
					"name": "minter",
					"type": "address"
				},
				{
					"indexed": false,
					"internalType": "uint256",
					"name": "idNFT",
					"type": "uint256"
				}
			],
			"name": "MintTokens",
			"type": "event"
		},
		{
			"anonymous": false,
			"inputs": [
				{
					"indexed": true,
					"internalType": "address",
					"name": "previousOwner",
					"type": "address"
				},
				{
					"indexed": true,
					"internalType": "address",
					"name": "newOwner",
					"type": "address"
				}
			],
			"name": "OwnershipTransferred",
			"type": "event"
		},
		{
			"anonymous": false,
			"inputs": [
				{
					"indexed": true,
					"internalType": "address",
					"name": "purchaser",
					"type": "address"
				},
				{
					"indexed": true,
					"internalType": "address",
					"name": "beneficiary",
					"type": "address"
				},
				{
					"indexed": false,
					"internalType": "uint256",
					"name": "value",
					"type": "uint256"
				},
				{
					"indexed": false,
					"internalType": "uint256",
					"name": "idToken",
					"type": "uint256"
				}
			],
			"name": "TokenPurchase",
			"type": "event"
		},
		{
			"anonymous": false,
			"inputs": [
				{
					"indexed": true,
					"internalType": "address",
					"name": "from",
					"type": "address"
				},
				{
					"indexed": true,
					"internalType": "address",
					"name": "to",
					"type": "address"
				},
				{
					"indexed": true,
					"internalType": "uint256",
					"name": "tokenId",
					"type": "uint256"
				}
			],
			"name": "Transfer",
			"type": "event"
		},
		{
			"inputs": [],
			"name": "ConfigContract",
			"outputs": [
				{
					"internalType": "contract IConfig",
					"name": "",
					"type": "address"
				}
			],
			"stateMutability": "view",
			"type": "function"
		},
		{
			"inputs": [],
			"name": "PassportCommissionsContract",
			"outputs": [
				{
					"internalType": "address",
					"name": "",
					"type": "address"
				}
			],
			"stateMutability": "view",
			"type": "function"
		},
		{
			"inputs": [],
			"name": "ReferralSystemContract",
			"outputs": [
				{
					"internalType": "contract IReferralSystem",
					"name": "",
					"type": "address"
				}
			],
			"stateMutability": "view",
			"type": "function"
		},
		{
			"inputs": [
				{
					"internalType": "address",
					"name": "",
					"type": "address"
				},
				{
					"internalType": "uint256",
					"name": "",
					"type": "uint256"
				}
			],
			"name": "airportsVisitedByUsers",
			"outputs": [
				{
					"internalType": "uint256",
					"name": "",
					"type": "uint256"
				}
			],
			"stateMutability": "view",
			"type": "function"
		},
		{
			"inputs": [
				{
					"internalType": "address",
					"name": "to",
					"type": "address"
				},
				{
					"internalType": "uint256",
					"name": "tokenId",
					"type": "uint256"
				}
			],
			"name": "approve",
			"outputs": [],
			"stateMutability": "nonpayable",
			"type": "function"
		},
		{
			"inputs": [
				{
					"internalType": "address",
					"name": "owner",
					"type": "address"
				}
			],
			"name": "balanceOf",
			"outputs": [
				{
					"internalType": "uint256",
					"name": "",
					"type": "uint256"
				}
			],
			"stateMutability": "view",
			"type": "function"
		},
		{
			"inputs": [],
			"name": "baseURI",
			"outputs": [
				{
					"internalType": "string",
					"name": "",
					"type": "string"
				}
			],
			"stateMutability": "view",
			"type": "function"
		},
		{
			"inputs": [
				{
					"internalType": "uint256",
					"name": "_destination",
					"type": "uint256"
				},
				{
					"internalType": "uint256",
					"name": "_milesAmount",
					"type": "uint256"
				}
			],
			"name": "changePlayerAirportWithMiles",
			"outputs": [],
			"stateMutability": "nonpayable",
			"type": "function"
		},
		{
			"inputs": [],
			"name": "claimRewardTokens",
			"outputs": [],
			"stateMutability": "nonpayable",
			"type": "function"
		},
		{
			"inputs": [
				{
					"internalType": "string",
					"name": "_tokenURI",
					"type": "string"
				},
				{
					"internalType": "uint256",
					"name": "_rarity",
					"type": "uint256"
				},
				{
					"internalType": "string",
					"name": "_referralCode",
					"type": "string"
				},
				{
					"internalType": "string",
					"name": "_code",
					"type": "string"
				}
			],
			"name": "comprarNFT",
			"outputs": [],
			"stateMutability": "payable",
			"type": "function"
		},
		{
			"inputs": [
				{
					"internalType": "address",
					"name": "",
					"type": "address"
				}
			],
			"name": "dataPassports",
			"outputs": [
				{
					"internalType": "uint256",
					"name": "idPassport",
					"type": "uint256"
				},
				{
					"internalType": "uint256",
					"name": "creationDate",
					"type": "uint256"
				},
				{
					"internalType": "uint256",
					"name": "statusPlayers",
					"type": "uint256"
				},
				{
					"internalType": "uint256",
					"name": "playerFlight",
					"type": "uint256"
				},
				{
					"internalType": "bool",
					"name": "playerInsurance",
					"type": "bool"
				},
				{
					"internalType": "uint256",
					"name": "playerAirport",
					"type": "uint256"
				},
				{
					"internalType": "uint256",
					"name": "multiplier",
					"type": "uint256"
				}
			],
			"stateMutability": "view",
			"type": "function"
		},
		{
			"inputs": [],
			"name": "gameContract",
			"outputs": [
				{
					"internalType": "address",
					"name": "",
					"type": "address"
				}
			],
			"stateMutability": "view",
			"type": "function"
		},
		{
			"inputs": [
				{
					"internalType": "uint256",
					"name": "tokenId",
					"type": "uint256"
				}
			],
			"name": "getApproved",
			"outputs": [
				{
					"internalType": "address",
					"name": "",
					"type": "address"
				}
			],
			"stateMutability": "view",
			"type": "function"
		},
		{
			"inputs": [],
			"name": "getPassportPrice",
			"outputs": [
				{
					"internalType": "uint256",
					"name": "",
					"type": "uint256"
				}
			],
			"stateMutability": "view",
			"type": "function"
		},
		{
			"inputs": [
				{
					"internalType": "address",
					"name": "player",
					"type": "address"
				}
			],
			"name": "getPlayerAirport",
			"outputs": [
				{
					"internalType": "uint256",
					"name": "",
					"type": "uint256"
				}
			],
			"stateMutability": "view",
			"type": "function"
		},
		{
			"inputs": [
				{
					"internalType": "address",
					"name": "player",
					"type": "address"
				}
			],
			"name": "getPlayerFlight",
			"outputs": [
				{
					"internalType": "uint256",
					"name": "",
					"type": "uint256"
				}
			],
			"stateMutability": "view",
			"type": "function"
		},
		{
			"inputs": [
				{
					"internalType": "address",
					"name": "player",
					"type": "address"
				}
			],
			"name": "getPlayerInsurance",
			"outputs": [
				{
					"internalType": "bool",
					"name": "",
					"type": "bool"
				}
			],
			"stateMutability": "view",
			"type": "function"
		},
		{
			"inputs": [
				{
					"internalType": "address",
					"name": "player",
					"type": "address"
				}
			],
			"name": "getPlayerStatus",
			"outputs": [
				{
					"internalType": "uint256",
					"name": "",
					"type": "uint256"
				}
			],
			"stateMutability": "view",
			"type": "function"
		},
		{
			"inputs": [
				{
					"internalType": "address",
					"name": "owner",
					"type": "address"
				},
				{
					"internalType": "address",
					"name": "operator",
					"type": "address"
				}
			],
			"name": "isApprovedForAll",
			"outputs": [
				{
					"internalType": "bool",
					"name": "",
					"type": "bool"
				}
			],
			"stateMutability": "view",
			"type": "function"
		},
		{
			"inputs": [],
			"name": "minMilesAmountToClaim",
			"outputs": [
				{
					"internalType": "uint256",
					"name": "",
					"type": "uint256"
				}
			],
			"stateMutability": "view",
			"type": "function"
		},
		{
			"inputs": [
				{
					"internalType": "uint256",
					"name": "",
					"type": "uint256"
				}
			],
			"name": "mintedPassportsByRarity",
			"outputs": [
				{
					"internalType": "uint256",
					"name": "",
					"type": "uint256"
				}
			],
			"stateMutability": "view",
			"type": "function"
		},
		{
			"inputs": [
				{
					"internalType": "uint256",
					"name": "",
					"type": "uint256"
				}
			],
			"name": "multiplierRarity",
			"outputs": [
				{
					"internalType": "uint256",
					"name": "",
					"type": "uint256"
				}
			],
			"stateMutability": "view",
			"type": "function"
		},
		{
			"inputs": [],
			"name": "name",
			"outputs": [
				{
					"internalType": "string",
					"name": "",
					"type": "string"
				}
			],
			"stateMutability": "view",
			"type": "function"
		},
		{
			"inputs": [],
			"name": "owner",
			"outputs": [
				{
					"internalType": "address",
					"name": "",
					"type": "address"
				}
			],
			"stateMutability": "view",
			"type": "function"
		},
		{
			"inputs": [
				{
					"internalType": "uint256",
					"name": "tokenId",
					"type": "uint256"
				}
			],
			"name": "ownerOf",
			"outputs": [
				{
					"internalType": "address",
					"name": "",
					"type": "address"
				}
			],
			"stateMutability": "view",
			"type": "function"
		},
		{
			"inputs": [
				{
					"internalType": "address",
					"name": "",
					"type": "address"
				}
			],
			"name": "playerStatistics",
			"outputs": [
				{
					"internalType": "uint256",
					"name": "ticketsBought",
					"type": "uint256"
				},
				{
					"internalType": "uint256",
					"name": "flights",
					"type": "uint256"
				},
				{
					"internalType": "uint256",
					"name": "landedPlanesByPlayer",
					"type": "uint256"
				},
				{
					"internalType": "uint256",
					"name": "earnings",
					"type": "uint256"
				},
				{
					"internalType": "uint256",
					"name": "cancellations",
					"type": "uint256"
				},
				{
					"internalType": "uint256",
					"name": "referredPlayers",
					"type": "uint256"
				},
				{
					"internalType": "uint256",
					"name": "earnedByReferal",
					"type": "uint256"
				},
				{
					"internalType": "uint256",
					"name": "rewardMiles",
					"type": "uint256"
				}
			],
			"stateMutability": "view",
			"type": "function"
		},
		{
			"inputs": [],
			"name": "pricePassport",
			"outputs": [
				{
					"internalType": "uint256",
					"name": "",
					"type": "uint256"
				}
			],
			"stateMutability": "view",
			"type": "function"
		},
		{
			"inputs": [
				{
					"internalType": "address",
					"name": "",
					"type": "address"
				}
			],
			"name": "referralByPlayer",
			"outputs": [
				{
					"internalType": "uint256",
					"name": "",
					"type": "uint256"
				}
			],
			"stateMutability": "view",
			"type": "function"
		},
		{
			"inputs": [],
			"name": "renounceOwnership",
			"outputs": [],
			"stateMutability": "nonpayable",
			"type": "function"
		},
		{
			"inputs": [
				{
					"internalType": "address",
					"name": "from",
					"type": "address"
				},
				{
					"internalType": "address",
					"name": "to",
					"type": "address"
				},
				{
					"internalType": "uint256",
					"name": "tokenId",
					"type": "uint256"
				}
			],
			"name": "safeTransferFrom",
			"outputs": [],
			"stateMutability": "nonpayable",
			"type": "function"
		},
		{
			"inputs": [
				{
					"internalType": "address",
					"name": "from",
					"type": "address"
				},
				{
					"internalType": "address",
					"name": "to",
					"type": "address"
				},
				{
					"internalType": "uint256",
					"name": "tokenId",
					"type": "uint256"
				},
				{
					"internalType": "bytes",
					"name": "data",
					"type": "bytes"
				}
			],
			"name": "safeTransferFrom",
			"outputs": [],
			"stateMutability": "nonpayable",
			"type": "function"
		},
		{
			"inputs": [
				{
					"internalType": "address",
					"name": "operator",
					"type": "address"
				},
				{
					"internalType": "bool",
					"name": "approved",
					"type": "bool"
				}
			],
			"name": "setApprovalForAll",
			"outputs": [],
			"stateMutability": "nonpayable",
			"type": "function"
		},
		{
			"inputs": [
				{
					"internalType": "uint256",
					"name": "_amount",
					"type": "uint256"
				}
			],
			"name": "setMinMilesAmountToClaim",
			"outputs": [],
			"stateMutability": "nonpayable",
			"type": "function"
		},
		{
			"inputs": [
				{
					"internalType": "address",
					"name": "player",
					"type": "address"
				},
				{
					"internalType": "uint256",
					"name": "airport",
					"type": "uint256"
				}
			],
			"name": "setPlayerAirport",
			"outputs": [],
			"stateMutability": "nonpayable",
			"type": "function"
		},
		{
			"inputs": [
				{
					"internalType": "address",
					"name": "player",
					"type": "address"
				},
				{
					"internalType": "uint256",
					"name": "flight",
					"type": "uint256"
				}
			],
			"name": "setPlayerFlight",
			"outputs": [],
			"stateMutability": "nonpayable",
			"type": "function"
		},
		{
			"inputs": [
				{
					"internalType": "address",
					"name": "player",
					"type": "address"
				},
				{
					"internalType": "bool",
					"name": "status",
					"type": "bool"
				}
			],
			"name": "setPlayerInsurance",
			"outputs": [],
			"stateMutability": "nonpayable",
			"type": "function"
		},
		{
			"inputs": [
				{
					"internalType": "address",
					"name": "player",
					"type": "address"
				},
				{
					"internalType": "uint256",
					"name": "status",
					"type": "uint256"
				},
				{
					"internalType": "bool",
					"name": "cxl",
					"type": "bool"
				},
				{
					"internalType": "uint256",
					"name": "pilotSalary",
					"type": "uint256"
				}
			],
			"name": "setPlayerStatus",
			"outputs": [],
			"stateMutability": "nonpayable",
			"type": "function"
		},
		{
			"inputs": [
				{
					"internalType": "bytes4",
					"name": "interfaceId",
					"type": "bytes4"
				}
			],
			"name": "supportsInterface",
			"outputs": [
				{
					"internalType": "bool",
					"name": "",
					"type": "bool"
				}
			],
			"stateMutability": "view",
			"type": "function"
		},
		{
			"inputs": [],
			"name": "symbol",
			"outputs": [
				{
					"internalType": "string",
					"name": "",
					"type": "string"
				}
			],
			"stateMutability": "view",
			"type": "function"
		},
		{
			"inputs": [
				{
					"internalType": "uint256",
					"name": "index",
					"type": "uint256"
				}
			],
			"name": "tokenByIndex",
			"outputs": [
				{
					"internalType": "uint256",
					"name": "",
					"type": "uint256"
				}
			],
			"stateMutability": "view",
			"type": "function"
		},
		{
			"inputs": [
				{
					"internalType": "address",
					"name": "owner",
					"type": "address"
				},
				{
					"internalType": "uint256",
					"name": "index",
					"type": "uint256"
				}
			],
			"name": "tokenOfOwnerByIndex",
			"outputs": [
				{
					"internalType": "uint256",
					"name": "",
					"type": "uint256"
				}
			],
			"stateMutability": "view",
			"type": "function"
		},
		{
			"inputs": [
				{
					"internalType": "uint256",
					"name": "tokenId",
					"type": "uint256"
				}
			],
			"name": "tokenURI",
			"outputs": [
				{
					"internalType": "string",
					"name": "",
					"type": "string"
				}
			],
			"stateMutability": "view",
			"type": "function"
		},
		{
			"inputs": [],
			"name": "totalSupply",
			"outputs": [
				{
					"internalType": "uint256",
					"name": "",
					"type": "uint256"
				}
			],
			"stateMutability": "view",
			"type": "function"
		},
		{
			"inputs": [
				{
					"internalType": "uint256",
					"name": "",
					"type": "uint256"
				}
			],
			"name": "touristsByAirport",
			"outputs": [
				{
					"internalType": "int256",
					"name": "",
					"type": "int256"
				}
			],
			"stateMutability": "view",
			"type": "function"
		},
		{
			"inputs": [
				{
					"internalType": "address",
					"name": "from",
					"type": "address"
				},
				{
					"internalType": "address",
					"name": "to",
					"type": "address"
				},
				{
					"internalType": "uint256",
					"name": "tokenId",
					"type": "uint256"
				}
			],
			"name": "transferFrom",
			"outputs": [],
			"stateMutability": "nonpayable",
			"type": "function"
		},
		{
			"inputs": [
				{
					"internalType": "address",
					"name": "newOwner",
					"type": "address"
				}
			],
			"name": "transferOwnership",
			"outputs": [],
			"stateMutability": "nonpayable",
			"type": "function"
		},
		{
			"stateMutability": "payable",
			"type": "receive"
		}
	],
	"bytecode": "0x60806040523480156200001157600080fd5b50620000226200002860201b60201c565b6200019c565b60006200003a6200013260201b60201c565b90508060000160089054906101000a900460ff161562000086576040517ff92ee8a900000000000000000000000000000000000000000000000000000000815260040160405180910390fd5b67ffffffffffffffff80168160000160009054906101000a900467ffffffffffffffff1667ffffffffffffffff16146200012f5767ffffffffffffffff8160000160006101000a81548167ffffffffffffffff021916908367ffffffffffffffff1602179055507fc7f505b2f371ae2175ee4913f4499e1f2633a7b5936321eed1cdaeb6115181d267ffffffffffffffff6040516200012691906200017f565b60405180910390a15b50565b60007ff0c57e16840df040f15088dc2f81fe391c3923bec73e23a9662efc9c229c6a00905090565b600067ffffffffffffffff82169050919050565b62000179816200015a565b82525050565b60006020820190506200019660008301846200016e565b92915050565b615df980620001ac6000396000f3fe6080604052600436106102815760003560e01c806371df13da1161014f578063b0cce576116100c1578063d3f330091161007a578063d3f3300914610a60578063d5be3e6914610a8b578063ddff28c214610ac8578063e3643a0314610af1578063e985e9c514610b2e578063f2fde38b14610b6b576102c1565b8063b0cce5761461095d578063b2626fc914610988578063b88d4fde146109b3578063bb685093146109dc578063c87b56dd14610a07578063d04ebee314610a44576102c1565b8063991a6e5111610113578063991a6e51146108155780639c269fef14610852578063a22cb4651461088f578063a6830f78146108b8578063a83db5c7146108f5578063abba0cec14610932576102c1565b806371df13da1461073a5780637ef2fc08146107515780638751f497146107945780638da5cb5b146107bf57806395d89b41146107ea576102c1565b80633875501d116101f357806356d924ff116101ac57806356d924ff1461062a5780636352211e146106555780636c0360eb1461069257806370a08231146106bd578063710d08cb146106fa578063715018a614610723576102c1565b80633875501d146104f157806339fc45371461053557806342842e0e1461055e57806342f217f01461058757806343fc7b8a146105c45780634f6ccce7146105ed576102c1565b80630b960d1a116102455780630b960d1a146103bd5780630f45db91146103fa57806318160ddd1461043757806323b872dd146104625780632f745c591461048b578063355a2c86146104c8576102c1565b806301ffc9a7146102c657806303502f371461030357806306fdde031461032c578063081812fc14610357578063095ea7b314610394576102c1565b366102c1576040517f08c379a00000000000000000000000000000000000000000000000000000000081526004016102b890614696565b60405180910390fd5b600080fd5b3480156102d257600080fd5b506102ed60048036038101906102e89190614722565b610b94565b6040516102fa919061476a565b60405180910390f35b34801561030f57600080fd5b5061032a60048036038101906103259190614819565b610ba6565b005b34801561033857600080fd5b50610341610cb1565b60405161034e91906148d8565b60405180910390f35b34801561036357600080fd5b5061037e600480360381019061037991906148fa565b610d52565b60405161038b9190614936565b60405180910390f35b3480156103a057600080fd5b506103bb60048036038101906103b69190614819565b610d6e565b005b3480156103c957600080fd5b506103e460048036038101906103df91906148fa565b610d84565b6040516103f1919061496a565b60405180910390f35b34801561040657600080fd5b50610421600480360381019061041c9190614985565b610d9c565b60405161042e91906149c1565b60405180910390f35b34801561044357600080fd5b5061044c610de8565b60405161045991906149c1565b60405180910390f35b34801561046e57600080fd5b50610489600480360381019061048491906149dc565b610e03565b005b34801561049757600080fd5b506104b260048036038101906104ad9190614819565b610f05565b6040516104bf91906149c1565b60405180910390f35b3480156104d457600080fd5b506104ef60048036038101906104ea9190614a5b565b610fbc565b005b3480156104fd57600080fd5b5061051860048036038101906105139190614985565b611074565b60405161052c989796959493929190614a9b565b60405180910390f35b34801561054157600080fd5b5061055c600480360381019061055791906148fa565b6110bc565b005b34801561056a57600080fd5b50610585600480360381019061058091906149dc565b6110e1565b005b34801561059357600080fd5b506105ae60048036038101906105a99190614985565b611101565b6040516105bb91906149c1565b60405180910390f35b3480156105d057600080fd5b506105eb60048036038101906105e69190614b19565b61114d565b005b3480156105f957600080fd5b50610614600480360381019061060f91906148fa565b6113d0565b60405161062191906149c1565b60405180910390f35b34801561063657600080fd5b5061063f611454565b60405161064c9190614936565b60405180910390f35b34801561066157600080fd5b5061067c600480360381019061067791906148fa565b61147a565b6040516106899190614936565b60405180910390f35b34801561069e57600080fd5b506106a761148c565b6040516106b491906148d8565b60405180910390f35b3480156106c957600080fd5b506106e460048036038101906106df9190614985565b61151a565b6040516106f191906149c1565b60405180910390f35b34801561070657600080fd5b50610721600480360381019061071c9190614b59565b6115e3565b005b34801561072f57600080fd5b50610738611a57565b005b34801561074657600080fd5b5061074f611a6b565b005b34801561075d57600080fd5b5061077860048036038101906107739190614985565b611d02565b60405161078b9796959493929190614bc0565b60405180910390f35b3480156107a057600080fd5b506107a9611d51565b6040516107b69190614c8e565b60405180910390f35b3480156107cb57600080fd5b506107d4611d77565b6040516107e19190614936565b60405180910390f35b3480156107f657600080fd5b506107ff611daf565b60405161080c91906148d8565b60405180910390f35b34801561082157600080fd5b5061083c60048036038101906108379190614985565b611e50565b60405161084991906149c1565b60405180910390f35b34801561085e57600080fd5b5061087960048036038101906108749190614985565b611e9c565b60405161088691906149c1565b60405180910390f35b34801561089b57600080fd5b506108b660048036038101906108b19190614a5b565b611eb4565b005b3480156108c457600080fd5b506108df60048036038101906108da9190614985565b611eca565b6040516108ec919061476a565b60405180910390f35b34801561090157600080fd5b5061091c600480360381019061091791906148fa565b611f23565b60405161092991906149c1565b60405180910390f35b34801561093e57600080fd5b50610947611f3b565b6040516109549190614cca565b60405180910390f35b34801561096957600080fd5b50610972611f61565b60405161097f91906149c1565b60405180910390f35b34801561099457600080fd5b5061099d611ff9565b6040516109aa91906149c1565b60405180910390f35b3480156109bf57600080fd5b506109da60048036038101906109d59190614e1a565b611fff565b005b3480156109e857600080fd5b506109f161201c565b6040516109fe91906149c1565b60405180910390f35b348015610a1357600080fd5b50610a2e6004803603810190610a2991906148fa565b612022565b604051610a3b91906148d8565b60405180910390f35b610a5e6004803603810190610a599190614f3e565b612115565b005b348015610a6c57600080fd5b50610a7561283c565b604051610a829190614936565b60405180910390f35b348015610a9757600080fd5b50610ab26004803603810190610aad9190614819565b612862565b604051610abf91906149c1565b60405180910390f35b348015610ad457600080fd5b50610aef6004803603810190610aea9190614819565b612887565b005b348015610afd57600080fd5b50610b186004803603810190610b1391906148fa565b61292c565b604051610b2591906149c1565b60405180910390f35b348015610b3a57600080fd5b50610b556004803603810190610b509190614ff9565b612947565b604051610b62919061476a565b60405180910390f35b348015610b7757600080fd5b50610b926004803603810190610b8d9190614985565b6129e9565b005b6000610b9f82612a6f565b9050919050565b600360009054906101000a900473ffffffffffffffffffffffffffffffffffffffff1673ffffffffffffffffffffffffffffffffffffffff163373ffffffffffffffffffffffffffffffffffffffff1614610c0057600080fd5b80600c60008473ffffffffffffffffffffffffffffffffffffffff1673ffffffffffffffffffffffffffffffffffffffff16815260200190815260200160002060050181905550600b60008373ffffffffffffffffffffffffffffffffffffffff1673ffffffffffffffffffffffffffffffffffffffff16815260200190815260200160002060008281526020019081526020016000206000815480929190610ca890615068565b91905055505050565b60606000610cbd612ae9565b9050806000018054610cce906150df565b80601f0160208091040260200160405190810160405280929190818152602001828054610cfa906150df565b8015610d475780601f10610d1c57610100808354040283529160200191610d47565b820191906000526020600020905b815481529060010190602001808311610d2a57829003601f168201915b505050505091505090565b6000610d5d82612b11565b50610d6782612b99565b9050919050565b610d808282610d7b612be4565b612bec565b5050565b60046020528060005260406000206000915090505481565b6000600c60008373ffffffffffffffffffffffffffffffffffffffff1673ffffffffffffffffffffffffffffffffffffffff168152602001908152602001600020600201549050919050565b600080610df3612bfe565b9050806002018054905091505090565b600073ffffffffffffffffffffffffffffffffffffffff168273ffffffffffffffffffffffffffffffffffffffff1603610e755760006040517f64a0ae92000000000000000000000000000000000000000000000000000000008152600401610e6c9190614936565b60405180910390fd5b6000610e898383610e84612be4565b612c26565b90508373ffffffffffffffffffffffffffffffffffffffff168173ffffffffffffffffffffffffffffffffffffffff1614610eff578382826040517f64283d7b000000000000000000000000000000000000000000000000000000008152600401610ef693929190615110565b60405180910390fd5b50505050565b600080610f10612bfe565b9050610f1b8461151a565b8310610f605783836040517fa57d13dc000000000000000000000000000000000000000000000000000000008152600401610f57929190615147565b60405180910390fd5b8060000160008573ffffffffffffffffffffffffffffffffffffffff1673ffffffffffffffffffffffffffffffffffffffff16815260200190815260200160002060008481526020019081526020016000205491505092915050565b600360009054906101000a900473ffffffffffffffffffffffffffffffffffffffff1673ffffffffffffffffffffffffffffffffffffffff163373ffffffffffffffffffffffffffffffffffffffff161461101657600080fd5b80600c60008473ffffffffffffffffffffffffffffffffffffffff1673ffffffffffffffffffffffffffffffffffffffff16815260200190815260200160002060040160006101000a81548160ff0219169083151502179055505050565b60116020528060005260406000206000915090508060000154908060010154908060020154908060030154908060040154908060050154908060060154908060070154905088565b6110c4612f24565b670de0b6b3a7640000816110d89190615170565b601d8190555050565b6110fc83838360405180602001604052806000815250611fff565b505050565b6000600c60008373ffffffffffffffffffffffffffffffffffffffff1673ffffffffffffffffffffffffffffffffffffffff168152602001908152602001600020600301549050919050565b6000600c60003373ffffffffffffffffffffffffffffffffffffffff1673ffffffffffffffffffffffffffffffffffffffff16815260200190815260200160002060020154146111d2576040517f08c379a00000000000000000000000000000000000000000000000000000000081526004016111c9906151fe565b60405180910390fd5b600e60009054906101000a900473ffffffffffffffffffffffffffffffffffffffff1673ffffffffffffffffffffffffffffffffffffffff166331206c7e6040518163ffffffff1660e01b8152600401602060405180830381865afa15801561123f573d6000803e3d6000fd5b505050506040513d601f19601f820116820180604052508101906112639190615233565b81146112a4576040517f08c379a000000000000000000000000000000000000000000000000000000000815260040161129b906152ac565b60405180910390fd5b601c60009054906101000a900473ffffffffffffffffffffffffffffffffffffffff1673ffffffffffffffffffffffffffffffffffffffff166323b872dd3330846040518463ffffffff1660e01b8152600401611303939291906152cc565b6020604051808303816000875af1158015611322573d6000803e3d6000fd5b505050506040513d601f19601f820116820180604052508101906113469190615318565b611385576040517f08c379a000000000000000000000000000000000000000000000000000000000815260040161137c90615391565b60405180910390fd5b81600c60003373ffffffffffffffffffffffffffffffffffffffff1673ffffffffffffffffffffffffffffffffffffffff168152602001908152602001600020600501819055505050565b6000806113db612bfe565b90506113e5610de8565b831061142b576000836040517fa57d13dc000000000000000000000000000000000000000000000000000000008152600401611422929190615147565b60405180910390fd5b806002018381548110611441576114406153b1565b5b9060005260206000200154915050919050565b600f60009054906101000a900473ffffffffffffffffffffffffffffffffffffffff1681565b600061148582612b11565b9050919050565b60018054611499906150df565b80601f01602080910402602001604051908101604052809291908181526020018280546114c5906150df565b80156115125780601f106114e757610100808354040283529160200191611512565b820191906000526020600020905b8154815290600101906020018083116114f557829003601f168201915b505050505081565b600080611525612ae9565b9050600073ffffffffffffffffffffffffffffffffffffffff168373ffffffffffffffffffffffffffffffffffffffff16036115995760006040517f89c62b640000000000000000000000000000000000000000000000000000000081526004016115909190614936565b60405180910390fd5b8060030160008473ffffffffffffffffffffffffffffffffffffffff1673ffffffffffffffffffffffffffffffffffffffff16815260200190815260200160002054915050919050565b600360009054906101000a900473ffffffffffffffffffffffffffffffffffffffff1673ffffffffffffffffffffffffffffffffffffffff163373ffffffffffffffffffffffffffffffffffffffff161461163d57600080fd5b6000600c60008673ffffffffffffffffffffffffffffffffffffffff1673ffffffffffffffffffffffffffffffffffffffff1681526020019081526020016000206002015414801561168f5750600183145b156116ed57601160008573ffffffffffffffffffffffffffffffffffffffff1673ffffffffffffffffffffffffffffffffffffffff16815260200190815260200160002060000160008154809291906116e790615068565b91905055505b811561174c57601160008573ffffffffffffffffffffffffffffffffffffffff1673ffffffffffffffffffffffffffffffffffffffff168152602001908152602001600020600401600081548092919061174690615068565b91905055505b6000600c60008673ffffffffffffffffffffffffffffffffffffffff1673ffffffffffffffffffffffffffffffffffffffff16815260200190815260200160002060020154141580156117e1575082600c60008673ffffffffffffffffffffffffffffffffffffffff1673ffffffffffffffffffffffffffffffffffffffff1681526020019081526020016000206002015414155b80156117eb575081155b156118f757601160008573ffffffffffffffffffffffffffffffffffffffff1673ffffffffffffffffffffffffffffffffffffffff168152602001908152602001600020600101600081548092919061184390615068565b9190505550600c60008573ffffffffffffffffffffffffffffffffffffffff1673ffffffffffffffffffffffffffffffffffffffff16815260200190815260200160002060060154674563918244f4000061189e9190615170565b601160008673ffffffffffffffffffffffffffffffffffffffff1673ffffffffffffffffffffffffffffffffffffffff16815260200190815260200160002060070160008282546118ef91906153e0565b925050819055505b6004600c60008673ffffffffffffffffffffffffffffffffffffffff1673ffffffffffffffffffffffffffffffffffffffff168152602001908152602001600020600201541480156119495750600083145b8015611953575081155b15611a0a57601160008573ffffffffffffffffffffffffffffffffffffffff1673ffffffffffffffffffffffffffffffffffffffff16815260200190815260200160002060020160008154809291906119ab90615068565b919050555080601160008673ffffffffffffffffffffffffffffffffffffffff1673ffffffffffffffffffffffffffffffffffffffff1681526020019081526020016000206003016000828254611a0291906153e0565b925050819055505b82600c60008673ffffffffffffffffffffffffffffffffffffffff1673ffffffffffffffffffffffffffffffffffffffff1681526020019081526020016000206002018190555050505050565b611a5f612f24565b611a696000612fab565b565b6000601160003373ffffffffffffffffffffffffffffffffffffffff1673ffffffffffffffffffffffffffffffffffffffff168152602001908152602001600020600701549050601d548111611af6576040517f08c379a0000000000000000000000000000000000000000000000000000000008152600401611aed90615460565b60405180910390fd5b6000601c60009054906101000a900473ffffffffffffffffffffffffffffffffffffffff1673ffffffffffffffffffffffffffffffffffffffff166370a08231306040518263ffffffff1660e01b8152600401611b539190614936565b602060405180830381865afa158015611b70573d6000803e3d6000fd5b505050506040513d601f19601f82011682018060405250810190611b949190615233565b905081811015611bd9576040517f08c379a0000000000000000000000000000000000000000000000000000000008152600401611bd0906154cc565b60405180910390fd5b601160003373ffffffffffffffffffffffffffffffffffffffff1673ffffffffffffffffffffffffffffffffffffffff16815260200190815260200160002060070160009055601c60009054906101000a900473ffffffffffffffffffffffffffffffffffffffff1673ffffffffffffffffffffffffffffffffffffffff1663a9059cbb33846040518363ffffffff1660e01b8152600401611c7c929190615147565b6020604051808303816000875af1158015611c9b573d6000803e3d6000fd5b505050506040513d601f19601f82011682018060405250810190611cbf9190615318565b611cfe576040517f08c379a0000000000000000000000000000000000000000000000000000000008152600401611cf590615538565b60405180910390fd5b5050565b600c6020528060005260406000206000915090508060000154908060010154908060020154908060030154908060040160009054906101000a900460ff16908060050154908060060154905087565b600e60009054906101000a900473ffffffffffffffffffffffffffffffffffffffff1681565b600080611d82613082565b90508060000160009054906101000a900473ffffffffffffffffffffffffffffffffffffffff1691505090565b60606000611dbb612ae9565b9050806001018054611dcc906150df565b80601f0160208091040260200160405190810160405280929190818152602001828054611df8906150df565b8015611e455780601f10611e1a57610100808354040283529160200191611e45565b820191906000526020600020905b815481529060010190602001808311611e2857829003601f168201915b505050505091505090565b6000600c60008373ffffffffffffffffffffffffffffffffffffffff1673ffffffffffffffffffffffffffffffffffffffff168152602001908152602001600020600501549050919050565b60126020528060005260406000206000915090505481565b611ec6611ebf612be4565b83836130aa565b5050565b6000600c60008373ffffffffffffffffffffffffffffffffffffffff1673ffffffffffffffffffffffffffffffffffffffff16815260200190815260200160002060040160009054906101000a900460ff169050919050565b60106020528060005260406000206000915090505481565b600d60009054906101000a900473ffffffffffffffffffffffffffffffffffffffff1681565b6000600e60009054906101000a900473ffffffffffffffffffffffffffffffffffffffff1673ffffffffffffffffffffffffffffffffffffffff1663b2626fc96040518163ffffffff1660e01b8152600401602060405180830381865afa158015611fd0573d6000803e3d6000fd5b505050506040513d601f19601f82011682018060405250810190611ff49190615233565b905090565b60005481565b61200a848484610e03565b61201684848484613228565b50505050565b601d5481565b606061202d82612b11565b50600060026000848152602001908152602001600020805461204e906150df565b80601f016020809104026020016040519081016040528092919081815260200182805461207a906150df565b80156120c75780601f1061209c576101008083540402835291602001916120c7565b820191906000526020600020905b8154815290600101906020018083116120aa57829003601f168201915b50505050509050600081511115612103576001816040516020016120ec92919061562c565b604051602081830303815290604052915050612110565b61210c836133df565b9150505b919050565b61211e33613448565b1561212857600080fd5b60016121333361151a565b10612173576040517f08c379a000000000000000000000000000000000000000000000000000000000815260040161216a9061569c565b60405180910390fd5b6000600e60009054906101000a900473ffffffffffffffffffffffffffffffffffffffff1673ffffffffffffffffffffffffffffffffffffffff1663b2626fc96040518163ffffffff1660e01b8152600401602060405180830381865afa1580156121e2573d6000803e3d6000fd5b505050506040513d601f19601f820116820180604052508101906122069190615233565b9050600073ffffffffffffffffffffffffffffffffffffffff16600d60009054906101000a900473ffffffffffffffffffffffffffffffffffffffff1673ffffffffffffffffffffffffffffffffffffffff1663a9d71fef856040518263ffffffff1660e01b815260040161227b91906148d8565b602060405180830381865afa158015612298573d6000803e3d6000fd5b505050506040513d601f19601f820116820180604052508101906122bc91906156d1565b73ffffffffffffffffffffffffffffffffffffffff16146122e7576002816122e4919061572d565b90505b8034101561232a576040517f08c379a0000000000000000000000000000000000000000000000000000000008152600401612321906157aa565b60405180910390fd5b60006064600a543461233c9190615170565b612346919061572d565b905060006001612354610de8565b61235e91906153e0565b905061236a3382613461565b8660026000838152602001908152602001600020908161238a9190615957565b50612395818761347f565b600073ffffffffffffffffffffffffffffffffffffffff16600d60009054906101000a900473ffffffffffffffffffffffffffffffffffffffff1673ffffffffffffffffffffffffffffffffffffffff1663a9d71fef876040518263ffffffff1660e01b815260040161240891906148d8565b602060405180830381865afa158015612425573d6000803e3d6000fd5b505050506040513d601f19601f8201168201806040525081019061244991906156d1565b73ffffffffffffffffffffffffffffffffffffffff16146125dd576000600d60009054906101000a900473ffffffffffffffffffffffffffffffffffffffff1673ffffffffffffffffffffffffffffffffffffffff1663a9d71fef876040518263ffffffff1660e01b81526004016124c191906148d8565b602060405180830381865afa1580156124de573d6000803e3d6000fd5b505050506040513d601f19601f8201168201806040525081019061250291906156d1565b9050601160008273ffffffffffffffffffffffffffffffffffffffff1673ffffffffffffffffffffffffffffffffffffffff168152602001908152602001600020600501600081548092919061255790615068565b91905055506125728160028561256d919061572d565b6135aa565b60028361257f919061572d565b601160008373ffffffffffffffffffffffffffffffffffffffff1673ffffffffffffffffffffffffffffffffffffffff16815260200190815260200160002060060160008282546125d091906153e0565b9250508190555050612684565b612683600e60009054906101000a900473ffffffffffffffffffffffffffffffffffffffff1673ffffffffffffffffffffffffffffffffffffffff1663a5ece9416040518163ffffffff1660e01b8152600401602060405180830381865afa15801561264d573d6000803e3d6000fd5b505050506040513d601f19601f8201168201806040525081019061267191906156d1565b60028461267e919061572d565b6135aa565b5b61268d3461365b565b6000600d60009054906101000a900473ffffffffffffffffffffffffffffffffffffffff1673ffffffffffffffffffffffffffffffffffffffff166395a7cba2336040518263ffffffff1660e01b81526004016126ea9190614936565b600060405180830381865afa158015612707573d6000803e3d6000fd5b505050506040513d6000823e3d601f19601f820116820180604052508101906127309190615a99565b905060008151036127cb57600d60009054906101000a900473ffffffffffffffffffffffffffffffffffffffff1673ffffffffffffffffffffffffffffffffffffffff1663562524bb33876040518363ffffffff1660e01b8152600401612798929190615ae2565b600060405180830381600087803b1580156127b257600080fd5b505af11580156127c6573d6000803e3d6000fd5b505050505b3373ffffffffffffffffffffffffffffffffffffffff163073ffffffffffffffffffffffffffffffffffffffff167f623b3804fa71d67900d064613da8f94b9617215ee90799290593e1745087ad18348560405161282a929190615b12565b60405180910390a35050505050505050565b600360009054906101000a900473ffffffffffffffffffffffffffffffffffffffff1681565b600b602052816000526040600020602052806000526040600020600091509150505481565b600360009054906101000a900473ffffffffffffffffffffffffffffffffffffffff1673ffffffffffffffffffffffffffffffffffffffff163373ffffffffffffffffffffffffffffffffffffffff16146128e157600080fd5b80600c60008473ffffffffffffffffffffffffffffffffffffffff1673ffffffffffffffffffffffffffffffffffffffff168152602001908152602001600020600301819055505050565b6013816009811061293c57600080fd5b016000915090505481565b600080612952612ae9565b90508060050160008573ffffffffffffffffffffffffffffffffffffffff1673ffffffffffffffffffffffffffffffffffffffff16815260200190815260200160002060008473ffffffffffffffffffffffffffffffffffffffff1673ffffffffffffffffffffffffffffffffffffffff16815260200190815260200160002060009054906101000a900460ff1691505092915050565b6129f1612f24565b600073ffffffffffffffffffffffffffffffffffffffff168173ffffffffffffffffffffffffffffffffffffffff1603612a635760006040517f1e4fbdf7000000000000000000000000000000000000000000000000000000008152600401612a5a9190614936565b60405180910390fd5b612a6c81612fab565b50565b60007f780e9d63000000000000000000000000000000000000000000000000000000007bffffffffffffffffffffffffffffffffffffffffffffffffffffffff1916827bffffffffffffffffffffffffffffffffffffffffffffffffffffffff19161480612ae25750612ae182613754565b5b9050919050565b60007f80bb2b638cc20bc4d0a60d66940f3ab4a00c1d7b313497ca82fb0b4ab0079300905090565b600080612b1d83613836565b9050600073ffffffffffffffffffffffffffffffffffffffff168173ffffffffffffffffffffffffffffffffffffffff1603612b9057826040517f7e273289000000000000000000000000000000000000000000000000000000008152600401612b8791906149c1565b60405180910390fd5b80915050919050565b600080612ba4612ae9565b905080600401600084815260200190815260200160002060009054906101000a900473ffffffffffffffffffffffffffffffffffffffff16915050919050565b600033905090565b612bf98383836001613881565b505050565b60007f645e039705490088daad89bae25049a34f4a9072d398537b1ab2425f24cbed00905090565b600080612c328561151a565b14612c72576040517f08c379a0000000000000000000000000000000000000000000000000000000008152600401612c699061569c565b60405180910390fd5b3373ffffffffffffffffffffffffffffffffffffffff168473ffffffffffffffffffffffffffffffffffffffff1614612f0a576000600c60003373ffffffffffffffffffffffffffffffffffffffff1673ffffffffffffffffffffffffffffffffffffffff1681526020019081526020016000206003015414612d2a576040517f08c379a0000000000000000000000000000000000000000000000000000000008152600401612d2190615b87565b60405180910390fd5b82600c60008673ffffffffffffffffffffffffffffffffffffffff1673ffffffffffffffffffffffffffffffffffffffff16815260200190815260200160002060000181905550600c60003373ffffffffffffffffffffffffffffffffffffffff1673ffffffffffffffffffffffffffffffffffffffff16815260200190815260200160002060010154600c60008673ffffffffffffffffffffffffffffffffffffffff1673ffffffffffffffffffffffffffffffffffffffff16815260200190815260200160002060010181905550600c60003373ffffffffffffffffffffffffffffffffffffffff1673ffffffffffffffffffffffffffffffffffffffff16815260200190815260200160002060060154600c60008673ffffffffffffffffffffffffffffffffffffffff1673ffffffffffffffffffffffffffffffffffffffff16815260200190815260200160002060060181905550600c60003373ffffffffffffffffffffffffffffffffffffffff1673ffffffffffffffffffffffffffffffffffffffff1681526020019081526020016000206000808201600090556001820160009055600282016000905560038201600090556004820160006101000a81549060ff02191690556005820160009055600682016000905550505b6000612f17858585613a55565b9050809150509392505050565b612f2c612be4565b73ffffffffffffffffffffffffffffffffffffffff16612f4a611d77565b73ffffffffffffffffffffffffffffffffffffffff1614612fa957612f6d612be4565b6040517f118cdaa7000000000000000000000000000000000000000000000000000000008152600401612fa09190614936565b60405180910390fd5b565b6000612fb5613082565b905060008160000160009054906101000a900473ffffffffffffffffffffffffffffffffffffffff169050828260000160006101000a81548173ffffffffffffffffffffffffffffffffffffffff021916908373ffffffffffffffffffffffffffffffffffffffff1602179055508273ffffffffffffffffffffffffffffffffffffffff168173ffffffffffffffffffffffffffffffffffffffff167f8be0079c531659141344cd1fd0a4f28419497f9722a3daafe3b4186f6b6457e060405160405180910390a3505050565b60007f9016d09d72d40fdae2fd8ceac6b6234c7706214fd39c1cd1e609a0528c199300905090565b60006130b4612ae9565b9050600073ffffffffffffffffffffffffffffffffffffffff168373ffffffffffffffffffffffffffffffffffffffff160361312757826040517f5b08ba1800000000000000000000000000000000000000000000000000000000815260040161311e9190614936565b60405180910390fd5b818160050160008673ffffffffffffffffffffffffffffffffffffffff1673ffffffffffffffffffffffffffffffffffffffff16815260200190815260200160002060008573ffffffffffffffffffffffffffffffffffffffff1673ffffffffffffffffffffffffffffffffffffffff16815260200190815260200160002060006101000a81548160ff0219169083151502179055508273ffffffffffffffffffffffffffffffffffffffff168473ffffffffffffffffffffffffffffffffffffffff167f17307eab39ab6107e8899845ad3d59bd9653f200f220920489ca2b5937696c318460405161321a919061476a565b60405180910390a350505050565b60008373ffffffffffffffffffffffffffffffffffffffff163b11156133d9578273ffffffffffffffffffffffffffffffffffffffff1663150b7a0261326c612be4565b8685856040518563ffffffff1660e01b815260040161328e9493929190615bfc565b6020604051808303816000875af19250505080156132ca57506040513d601f19601f820116820180604052508101906132c79190615c5d565b60015b61334e573d80600081146132fa576040519150601f19603f3d011682016040523d82523d6000602084013e6132ff565b606091505b50600081510361334657836040517f64a0ae9200000000000000000000000000000000000000000000000000000000815260040161333d9190614936565b60405180910390fd5b805181602001fd5b63150b7a0260e01b7bffffffffffffffffffffffffffffffffffffffffffffffffffffffff1916817bffffffffffffffffffffffffffffffffffffffffffffffffffffffff1916146133d757836040517f64a0ae920000000000000000000000000000000000000000000000000000000081526004016133ce9190614936565b60405180910390fd5b505b50505050565b60606133ea82612b11565b5060006133f5613b72565b905060008151116134155760405180602001604052806000815250613440565b8061341f84613b89565b604051602001613430929190615c8a565b6040516020818303038152906040525b915050919050565b600080823b905060008163ffffffff1611915050919050565b61347b828260405180602001604052806000815250613c57565b5050565b60006040518060e0016040528084815260200142815260200160008152602001600081526020016000151581526020016000815260200160136001856134c59190615cae565b600981106134d6576134d56153b1565b5b0154815250905080600c60003373ffffffffffffffffffffffffffffffffffffffff1673ffffffffffffffffffffffffffffffffffffffff1681526020019081526020016000206000820151816000015560208201518160010155604082015181600201556060820151816003015560808201518160040160006101000a81548160ff02191690831515021790555060a0820151816005015560c082015181600601559050506010600083815260200190815260200160002060008154809291906135a090615068565b9190505550505050565b60008273ffffffffffffffffffffffffffffffffffffffff16826040516135d090615d13565b60006040518083038185875af1925050503d806000811461360d576040519150601f19603f3d011682016040523d82523d6000602084013e613612565b606091505b5050905080613656576040517f08c379a000000000000000000000000000000000000000000000000000000000815260040161364d90615d74565b60405180910390fd5b505050565b61370d600e60009054906101000a900473ffffffffffffffffffffffffffffffffffffffff1673ffffffffffffffffffffffffffffffffffffffff16633cf96af16040518163ffffffff1660e01b8152600401602060405180830381865afa1580156136cb573d6000803e3d6000fd5b505050506040513d601f19601f820116820180604052508101906136ef91906156d1565b6064600a846136fe9190615170565b613708919061572d565b6135aa565b613751600f60009054906101000a900473ffffffffffffffffffffffffffffffffffffffff1660646050846137429190615170565b61374c919061572d565b6135aa565b50565b60007f80ac58cd000000000000000000000000000000000000000000000000000000007bffffffffffffffffffffffffffffffffffffffffffffffffffffffff1916827bffffffffffffffffffffffffffffffffffffffffffffffffffffffff1916148061381f57507f5b5e139f000000000000000000000000000000000000000000000000000000007bffffffffffffffffffffffffffffffffffffffffffffffffffffffff1916827bffffffffffffffffffffffffffffffffffffffffffffffffffffffff1916145b8061382f575061382e82613c73565b5b9050919050565b600080613841612ae9565b905080600201600084815260200190815260200160002060009054906101000a900473ffffffffffffffffffffffffffffffffffffffff16915050919050565b600061388b612ae9565b905081806138c65750600073ffffffffffffffffffffffffffffffffffffffff168373ffffffffffffffffffffffffffffffffffffffff1614155b156139fa5760006138d685612b11565b9050600073ffffffffffffffffffffffffffffffffffffffff168473ffffffffffffffffffffffffffffffffffffffff161415801561394157508373ffffffffffffffffffffffffffffffffffffffff168173ffffffffffffffffffffffffffffffffffffffff1614155b801561395457506139528185612947565b155b1561399657836040517fa9fbf51f00000000000000000000000000000000000000000000000000000000815260040161398d9190614936565b60405180910390fd5b82156139f857848673ffffffffffffffffffffffffffffffffffffffff168273ffffffffffffffffffffffffffffffffffffffff167f8c5be1e5ebec7d5bd14f71427d1e84f3dd0314c0f7b2291e5b200ac8c7c3b92560405160405180910390a45b505b8481600401600086815260200190815260200160002060006101000a81548173ffffffffffffffffffffffffffffffffffffffff021916908373ffffffffffffffffffffffffffffffffffffffff1602179055505050505050565b600080613a63858585613cdd565b9050600073ffffffffffffffffffffffffffffffffffffffff168173ffffffffffffffffffffffffffffffffffffffff1603613aa757613aa284613f0a565b613ae6565b8473ffffffffffffffffffffffffffffffffffffffff168173ffffffffffffffffffffffffffffffffffffffff1614613ae557613ae48185613f66565b5b5b600073ffffffffffffffffffffffffffffffffffffffff168573ffffffffffffffffffffffffffffffffffffffff1603613b2857613b23846140e0565b613b67565b8473ffffffffffffffffffffffffffffffffffffffff168173ffffffffffffffffffffffffffffffffffffffff1614613b6657613b6585856141cc565b5b5b809150509392505050565b606060405180602001604052806000815250905090565b606060006001613b9884614268565b01905060008167ffffffffffffffff811115613bb757613bb6614cef565b5b6040519080825280601f01601f191660200182016040528015613be95781602001600182028036833780820191505090505b509050600082602001820190505b600115613c4c578080600190039150507f3031323334353637383961626364656600000000000000000000000000000000600a86061a8153600a8581613c4057613c3f6156fe565b5b04945060008503613bf7575b819350505050919050565b613c6183836143bb565b613c6e6000848484613228565b505050565b60007f01ffc9a7000000000000000000000000000000000000000000000000000000007bffffffffffffffffffffffffffffffffffffffffffffffffffffffff1916827bffffffffffffffffffffffffffffffffffffffffffffffffffffffff1916149050919050565b600080613ce8612ae9565b90506000613cf585613836565b9050600073ffffffffffffffffffffffffffffffffffffffff168473ffffffffffffffffffffffffffffffffffffffff1614613d3757613d368185876144b4565b5b600073ffffffffffffffffffffffffffffffffffffffff168173ffffffffffffffffffffffffffffffffffffffff1614613dca57613d79600086600080613881565b60018260030160008373ffffffffffffffffffffffffffffffffffffffff1673ffffffffffffffffffffffffffffffffffffffff168152602001908152602001600020600082825403925050819055505b600073ffffffffffffffffffffffffffffffffffffffff168673ffffffffffffffffffffffffffffffffffffffff1614613e4f5760018260030160008873ffffffffffffffffffffffffffffffffffffffff1673ffffffffffffffffffffffffffffffffffffffff168152602001908152602001600020600082825401925050819055505b8582600201600087815260200190815260200160002060006101000a81548173ffffffffffffffffffffffffffffffffffffffff021916908373ffffffffffffffffffffffffffffffffffffffff160217905550848673ffffffffffffffffffffffffffffffffffffffff168273ffffffffffffffffffffffffffffffffffffffff167fddf252ad1be2c89b69c2b068fc378daa952ba7f163c4a11628f55a4df523b3ef60405160405180910390a480925050509392505050565b6000613f14612bfe565b9050806002018054905081600301600084815260200190815260200160002081905550806002018290806001815401808255809150506001900390600052602060002001600090919091909150555050565b6000613f70612bfe565b90506000613f7d8461151a565b9050600082600101600085815260200190815260200160002054905081811461406a5760008360000160008773ffffffffffffffffffffffffffffffffffffffff1673ffffffffffffffffffffffffffffffffffffffff1681526020019081526020016000206000848152602001908152602001600020549050808460000160008873ffffffffffffffffffffffffffffffffffffffff1673ffffffffffffffffffffffffffffffffffffffff1681526020019081526020016000206000848152602001908152602001600020819055508184600101600083815260200190815260200160002081905550505b826001016000858152602001908152602001600020600090558260000160008673ffffffffffffffffffffffffffffffffffffffff1673ffffffffffffffffffffffffffffffffffffffff1681526020019081526020016000206000838152602001908152602001600020600090555050505050565b60006140ea612bfe565b90506000600182600201805490506141029190615cae565b905060008260030160008581526020019081526020016000205490506000836002018381548110614136576141356153b1565b5b906000526020600020015490508084600201838154811061415a576141596153b1565b5b9060005260206000200181905550818460030160008381526020019081526020016000208190555083600301600086815260200190815260200160002060009055836002018054806141af576141ae615d94565b5b600190038181906000526020600020016000905590555050505050565b60006141d6612bfe565b9050600060016141e58561151a565b6141ef9190615cae565b9050828260000160008673ffffffffffffffffffffffffffffffffffffffff1673ffffffffffffffffffffffffffffffffffffffff168152602001908152602001600020600083815260200190815260200160002081905550808260010160008581526020019081526020016000208190555050505050565b600080600090507a184f03e93ff9f4daa797ed6e38ed64bf6a1f01000000000000000083106142c6577a184f03e93ff9f4daa797ed6e38ed64bf6a1f01000000000000000083816142bc576142bb6156fe565b5b0492506040810190505b6d04ee2d6d415b85acef81000000008310614303576d04ee2d6d415b85acef810000000083816142f9576142f86156fe565b5b0492506020810190505b662386f26fc10000831061433257662386f26fc100008381614328576143276156fe565b5b0492506010810190505b6305f5e100831061435b576305f5e1008381614351576143506156fe565b5b0492506008810190505b6127108310614380576127108381614376576143756156fe565b5b0492506004810190505b606483106143a35760648381614399576143986156fe565b5b0492506002810190505b600a83106143b2576001810190505b80915050919050565b600073ffffffffffffffffffffffffffffffffffffffff168273ffffffffffffffffffffffffffffffffffffffff160361442d5760006040517f64a0ae920000000000000000000000000000000000000000000000000000000081526004016144249190614936565b60405180910390fd5b600061443b83836000612c26565b9050600073ffffffffffffffffffffffffffffffffffffffff168173ffffffffffffffffffffffffffffffffffffffff16146144af5760006040517f73c6ac6e0000000000000000000000000000000000000000000000000000000081526004016144a69190614936565b60405180910390fd5b505050565b6144bf838383614578565b61457357600073ffffffffffffffffffffffffffffffffffffffff168373ffffffffffffffffffffffffffffffffffffffff160361453457806040517f7e27328900000000000000000000000000000000000000000000000000000000815260040161452b91906149c1565b60405180910390fd5b81816040517f177e802f00000000000000000000000000000000000000000000000000000000815260040161456a929190615147565b60405180910390fd5b505050565b60008073ffffffffffffffffffffffffffffffffffffffff168373ffffffffffffffffffffffffffffffffffffffff161415801561463057508273ffffffffffffffffffffffffffffffffffffffff168473ffffffffffffffffffffffffffffffffffffffff1614806145f157506145f08484612947565b5b8061462f57508273ffffffffffffffffffffffffffffffffffffffff1661461783612b99565b73ffffffffffffffffffffffffffffffffffffffff16145b5b90509392505050565b600082825260208201905092915050565b7f6532320000000000000000000000000000000000000000000000000000000000600082015250565b6000614680600383614639565b915061468b8261464a565b602082019050919050565b600060208201905081810360008301526146af81614673565b9050919050565b6000604051905090565b600080fd5b600080fd5b60007fffffffff0000000000000000000000000000000000000000000000000000000082169050919050565b6146ff816146ca565b811461470a57600080fd5b50565b60008135905061471c816146f6565b92915050565b600060208284031215614738576147376146c0565b5b60006147468482850161470d565b91505092915050565b60008115159050919050565b6147648161474f565b82525050565b600060208201905061477f600083018461475b565b92915050565b600073ffffffffffffffffffffffffffffffffffffffff82169050919050565b60006147b082614785565b9050919050565b6147c0816147a5565b81146147cb57600080fd5b50565b6000813590506147dd816147b7565b92915050565b6000819050919050565b6147f6816147e3565b811461480157600080fd5b50565b600081359050614813816147ed565b92915050565b600080604083850312156148305761482f6146c0565b5b600061483e858286016147ce565b925050602061484f85828601614804565b9150509250929050565b600081519050919050565b60005b83811015614882578082015181840152602081019050614867565b60008484015250505050565b6000601f19601f8301169050919050565b60006148aa82614859565b6148b48185614639565b93506148c4818560208601614864565b6148cd8161488e565b840191505092915050565b600060208201905081810360008301526148f2818461489f565b905092915050565b6000602082840312156149105761490f6146c0565b5b600061491e84828501614804565b91505092915050565b614930816147a5565b82525050565b600060208201905061494b6000830184614927565b92915050565b6000819050919050565b61496481614951565b82525050565b600060208201905061497f600083018461495b565b92915050565b60006020828403121561499b5761499a6146c0565b5b60006149a9848285016147ce565b91505092915050565b6149bb816147e3565b82525050565b60006020820190506149d660008301846149b2565b92915050565b6000806000606084860312156149f5576149f46146c0565b5b6000614a03868287016147ce565b9350506020614a14868287016147ce565b9250506040614a2586828701614804565b9150509250925092565b614a388161474f565b8114614a4357600080fd5b50565b600081359050614a5581614a2f565b92915050565b60008060408385031215614a7257614a716146c0565b5b6000614a80858286016147ce565b9250506020614a9185828601614a46565b9150509250929050565b600061010082019050614ab1600083018b6149b2565b614abe602083018a6149b2565b614acb60408301896149b2565b614ad860608301886149b2565b614ae560808301876149b2565b614af260a08301866149b2565b614aff60c08301856149b2565b614b0c60e08301846149b2565b9998505050505050505050565b60008060408385031215614b3057614b2f6146c0565b5b6000614b3e85828601614804565b9250506020614b4f85828601614804565b9150509250929050565b60008060008060808587031215614b7357614b726146c0565b5b6000614b81878288016147ce565b9450506020614b9287828801614804565b9350506040614ba387828801614a46565b9250506060614bb487828801614804565b91505092959194509250565b600060e082019050614bd5600083018a6149b2565b614be260208301896149b2565b614bef60408301886149b2565b614bfc60608301876149b2565b614c09608083018661475b565b614c1660a08301856149b2565b614c2360c08301846149b2565b98975050505050505050565b6000819050919050565b6000614c54614c4f614c4a84614785565b614c2f565b614785565b9050919050565b6000614c6682614c39565b9050919050565b6000614c7882614c5b565b9050919050565b614c8881614c6d565b82525050565b6000602082019050614ca36000830184614c7f565b92915050565b6000614cb482614c5b565b9050919050565b614cc481614ca9565b82525050565b6000602082019050614cdf6000830184614cbb565b92915050565b600080fd5b600080fd5b7f4e487b7100000000000000000000000000000000000000000000000000000000600052604160045260246000fd5b614d278261488e565b810181811067ffffffffffffffff82111715614d4657614d45614cef565b5b80604052505050565b6000614d596146b6565b9050614d658282614d1e565b919050565b600067ffffffffffffffff821115614d8557614d84614cef565b5b614d8e8261488e565b9050602081019050919050565b82818337600083830152505050565b6000614dbd614db884614d6a565b614d4f565b905082815260208101848484011115614dd957614dd8614cea565b5b614de4848285614d9b565b509392505050565b600082601f830112614e0157614e00614ce5565b5b8135614e11848260208601614daa565b91505092915050565b60008060008060808587031215614e3457614e336146c0565b5b6000614e42878288016147ce565b9450506020614e53878288016147ce565b9350506040614e6487828801614804565b925050606085013567ffffffffffffffff811115614e8557614e846146c5565b5b614e9187828801614dec565b91505092959194509250565b600067ffffffffffffffff821115614eb857614eb7614cef565b5b614ec18261488e565b9050602081019050919050565b6000614ee1614edc84614e9d565b614d4f565b905082815260208101848484011115614efd57614efc614cea565b5b614f08848285614d9b565b509392505050565b600082601f830112614f2557614f24614ce5565b5b8135614f35848260208601614ece565b91505092915050565b60008060008060808587031215614f5857614f576146c0565b5b600085013567ffffffffffffffff811115614f7657614f756146c5565b5b614f8287828801614f10565b9450506020614f9387828801614804565b935050604085013567ffffffffffffffff811115614fb457614fb36146c5565b5b614fc087828801614f10565b925050606085013567ffffffffffffffff811115614fe157614fe06146c5565b5b614fed87828801614f10565b91505092959194509250565b600080604083850312156150105761500f6146c0565b5b600061501e858286016147ce565b925050602061502f858286016147ce565b9150509250929050565b7f4e487b7100000000000000000000000000000000000000000000000000000000600052601160045260246000fd5b6000615073826147e3565b91507fffffffffffffffffffffffffffffffffffffffffffffffffffffffffffffffff82036150a5576150a4615039565b5b600182019050919050565b7f4e487b7100000000000000000000000000000000000000000000000000000000600052602260045260246000fd5b600060028204905060018216806150f757607f821691505b60208210810361510a576151096150b0565b5b50919050565b60006060820190506151256000830186614927565b61513260208301856149b2565b61513f6040830184614927565b949350505050565b600060408201905061515c6000830185614927565b61516960208301846149b2565b9392505050565b600061517b826147e3565b9150615186836147e3565b9250828202615194816147e3565b915082820484148315176151ab576151aa615039565b5b5092915050565b7f6535000000000000000000000000000000000000000000000000000000000000600082015250565b60006151e8600283614639565b91506151f3826151b2565b602082019050919050565b60006020820190508181036000830152615217816151db565b9050919050565b60008151905061522d816147ed565b92915050565b600060208284031215615249576152486146c0565b5b60006152578482850161521e565b91505092915050565b7f6538000000000000000000000000000000000000000000000000000000000000600082015250565b6000615296600283614639565b91506152a182615260565b602082019050919050565b600060208201905081810360008301526152c581615289565b9050919050565b60006060820190506152e16000830186614927565b6152ee6020830185614927565b6152fb60408301846149b2565b949350505050565b60008151905061531281614a2f565b92915050565b60006020828403121561532e5761532d6146c0565b5b600061533c84828501615303565b91505092915050565b7f6532380000000000000000000000000000000000000000000000000000000000600082015250565b600061537b600383614639565b915061538682615345565b602082019050919050565b600060208201905081810360008301526153aa8161536e565b9050919050565b7f4e487b7100000000000000000000000000000000000000000000000000000000600052603260045260246000fd5b60006153eb826147e3565b91506153f6836147e3565b925082820190508082111561540e5761540d615039565b5b92915050565b7f6532350000000000000000000000000000000000000000000000000000000000600082015250565b600061544a600383614639565b915061545582615414565b602082019050919050565b600060208201905081810360008301526154798161543d565b9050919050565b7f496e73756666696369656e7420636f6e74726163742062616c616e6365000000600082015250565b60006154b6601d83614639565b91506154c182615480565b602082019050919050565b600060208201905081810360008301526154e5816154a9565b9050919050565b7f7472616e73666572206d696c6573206661696c65640000000000000000000000600082015250565b6000615522601583614639565b915061552d826154ec565b602082019050919050565b6000602082019050818103600083015261555181615515565b9050919050565b600081905092915050565b60008190508160005260206000209050919050565b60008154615585816150df565b61558f8186615558565b945060018216600081146155aa57600181146155bf576155f2565b60ff19831686528115158202860193506155f2565b6155c885615563565b60005b838110156155ea578154818901526001820191506020810190506155cb565b838801955050505b50505092915050565b600061560682614859565b6156108185615558565b9350615620818560208601614864565b80840191505092915050565b60006156388285615578565b915061564482846155fb565b91508190509392505050565b7f6531380000000000000000000000000000000000000000000000000000000000600082015250565b6000615686600383614639565b915061569182615650565b602082019050919050565b600060208201905081810360008301526156b581615679565b9050919050565b6000815190506156cb816147b7565b92915050565b6000602082840312156156e7576156e66146c0565b5b60006156f5848285016156bc565b91505092915050565b7f4e487b7100000000000000000000000000000000000000000000000000000000600052601260045260246000fd5b6000615738826147e3565b9150615743836147e3565b925082615753576157526156fe565b5b828204905092915050565b7f6532300000000000000000000000000000000000000000000000000000000000600082015250565b6000615794600383614639565b915061579f8261575e565b602082019050919050565b600060208201905081810360008301526157c381615787565b9050919050565b60006020601f8301049050919050565b600082821b905092915050565b6000600883026158177fffffffffffffffffffffffffffffffffffffffffffffffffffffffffffffffff826157da565b61582186836157da565b95508019841693508086168417925050509392505050565b600061585461584f61584a846147e3565b614c2f565b6147e3565b9050919050565b6000819050919050565b61586e83615839565b61588261587a8261585b565b8484546157e7565b825550505050565b600090565b61589761588a565b6158a2818484615865565b505050565b5b818110156158c6576158bb60008261588f565b6001810190506158a8565b5050565b601f82111561590b576158dc81615563565b6158e5846157ca565b810160208510156158f4578190505b615908615900856157ca565b8301826158a7565b50505b505050565b600082821c905092915050565b600061592e60001984600802615910565b1980831691505092915050565b6000615947838361591d565b9150826002028217905092915050565b61596082614859565b67ffffffffffffffff81111561597957615978614cef565b5b61598382546150df565b61598e8282856158ca565b600060209050601f8311600181146159c157600084156159af578287015190505b6159b9858261593b565b865550615a21565b601f1984166159cf86615563565b60005b828110156159f7578489015182556001820191506020850194506020810190506159d2565b86831015615a145784890151615a10601f89168261591d565b8355505b6001600288020188555050505b505050505050565b6000615a3c615a3784614e9d565b614d4f565b905082815260208101848484011115615a5857615a57614cea565b5b615a63848285614864565b509392505050565b600082601f830112615a8057615a7f614ce5565b5b8151615a90848260208601615a29565b91505092915050565b600060208284031215615aaf57615aae6146c0565b5b600082015167ffffffffffffffff811115615acd57615acc6146c5565b5b615ad984828501615a6b565b91505092915050565b6000604082019050615af76000830185614927565b8181036020830152615b09818461489f565b90509392505050565b6000604082019050615b2760008301856149b2565b615b3460208301846149b2565b9392505050565b7f6531390000000000000000000000000000000000000000000000000000000000600082015250565b6000615b71600383614639565b9150615b7c82615b3b565b602082019050919050565b60006020820190508181036000830152615ba081615b64565b9050919050565b600081519050919050565b600082825260208201905092915050565b6000615bce82615ba7565b615bd88185615bb2565b9350615be8818560208601614864565b615bf18161488e565b840191505092915050565b6000608082019050615c116000830187614927565b615c1e6020830186614927565b615c2b60408301856149b2565b8181036060830152615c3d8184615bc3565b905095945050505050565b600081519050615c57816146f6565b92915050565b600060208284031215615c7357615c726146c0565b5b6000615c8184828501615c48565b91505092915050565b6000615c9682856155fb565b9150615ca282846155fb565b91508190509392505050565b6000615cb9826147e3565b9150615cc4836147e3565b9250828203905081811115615cdc57615cdb615039565b5b92915050565b600081905092915050565b50565b6000615cfd600083615ce2565b9150615d0882615ced565b600082019050919050565b6000615d1e82615cf0565b9150819050919050565b7f6532310000000000000000000000000000000000000000000000000000000000600082015250565b6000615d5e600383614639565b9150615d6982615d28565b602082019050919050565b60006020820190508181036000830152615d8d81615d51565b9050919050565b7f4e487b7100000000000000000000000000000000000000000000000000000000600052603160045260246000fdfea2646970667358221220d938c15eac70dd6981bf1cc5d0d1f0a8f7b93ebf7c131e68564d9e43e85dd52c64736f6c63430008140033",
	"linkReferences": {},
	"deployedLinkReferences": {}
}